{
  "_format": "hh-sol-artifact-1",
  "contractName": "TipMe",
  "sourceName": "contracts/TipMe.sol",
  "abi": [
    {
      "inputs": [],
      "stateMutability": "payable",
      "type": "constructor"
    },
    {
      "inputs": [
        {
          "internalType": "uint256",
          "name": "_orderAmount",
          "type": "uint256"
        },
        {
          "internalType": "uint256",
          "name": "_tipAmount",
          "type": "uint256"
        }
      ],
      "name": "addOrder",
      "outputs": [],
      "stateMutability": "nonpayable",
      "type": "function"
    },
    {
      "inputs": [],
      "name": "addWaiter",
      "outputs": [],
      "stateMutability": "nonpayable",
      "type": "function"
    },
    {
      "inputs": [
        {
          "internalType": "address",
          "name": "",
          "type": "address"
        }
      ],
      "name": "addressToWaiterName",
      "outputs": [
        {
          "internalType": "string",
          "name": "",
          "type": "string"
        }
      ],
      "stateMutability": "view",
      "type": "function"
    },
    {
      "inputs": [],
      "name": "getOrders",
      "outputs": [
        {
          "components": [
            {
              "internalType": "uint256",
              "name": "orderNumber",
              "type": "uint256"
            },
            {
              "internalType": "uint256",
              "name": "orderAmount",
              "type": "uint256"
            },
            {
              "internalType": "uint256",
              "name": "tipAmount",
              "type": "uint256"
            },
            {
              "internalType": "address",
              "name": "waiterAddress",
              "type": "address"
            },
            {
              "internalType": "string",
              "name": "waiterName",
              "type": "string"
            }
          ],
          "internalType": "struct TipMe.Order[]",
          "name": "",
          "type": "tuple[]"
        }
      ],
      "stateMutability": "view",
      "type": "function"
    },
    {
      "inputs": [],
      "name": "getWaiters",
      "outputs": [
        {
          "components": [
            {
              "internalType": "string",
              "name": "waiterName",
              "type": "string"
            },
            {
              "internalType": "address",
              "name": "waiterAddress",
              "type": "address"
            },
            {
              "internalType": "uint256",
              "name": "tip",
              "type": "uint256"
            }
          ],
          "internalType": "struct TipMe.Waiter[]",
          "name": "",
          "type": "tuple[]"
        }
      ],
      "stateMutability": "view",
      "type": "function"
    },
    {
      "inputs": [],
      "name": "orderNumber",
      "outputs": [
        {
          "internalType": "uint256",
          "name": "",
          "type": "uint256"
        }
      ],
      "stateMutability": "view",
      "type": "function"
    },
    {
      "inputs": [
        {
          "internalType": "uint256",
          "name": "",
          "type": "uint256"
        }
      ],
      "name": "orderToWaiterAddress",
      "outputs": [
        {
          "internalType": "address",
          "name": "",
          "type": "address"
        }
      ],
      "stateMutability": "view",
      "type": "function"
    },
    {
      "inputs": [
        {
          "internalType": "uint256",
          "name": "",
          "type": "uint256"
        }
      ],
      "name": "orderToWaiterName",
      "outputs": [
        {
          "internalType": "string",
          "name": "",
          "type": "string"
        }
      ],
      "stateMutability": "view",
      "type": "function"
    },
    {
      "inputs": [
        {
          "internalType": "uint256",
          "name": "",
          "type": "uint256"
        }
      ],
      "name": "orders",
      "outputs": [
        {
          "internalType": "uint256",
          "name": "orderNumber",
          "type": "uint256"
        },
        {
          "internalType": "uint256",
          "name": "orderAmount",
          "type": "uint256"
        },
        {
          "internalType": "uint256",
          "name": "tipAmount",
          "type": "uint256"
        },
        {
          "internalType": "address",
          "name": "waiterAddress",
          "type": "address"
        },
        {
          "internalType": "string",
          "name": "waiterName",
          "type": "string"
        }
      ],
      "stateMutability": "view",
      "type": "function"
    },
    {
      "inputs": [
        {
          "internalType": "string",
          "name": "name",
          "type": "string"
        }
      ],
      "name": "updateWaiterName",
      "outputs": [],
      "stateMutability": "nonpayable",
      "type": "function"
    },
    {
      "inputs": [
        {
          "internalType": "address",
          "name": "",
          "type": "address"
        }
      ],
      "name": "waiterToTip",
      "outputs": [
        {
          "internalType": "uint256",
          "name": "",
          "type": "uint256"
        }
      ],
      "stateMutability": "view",
      "type": "function"
    },
    {
      "inputs": [
        {
          "internalType": "uint256",
          "name": "",
          "type": "uint256"
        }
      ],
      "name": "waiters",
      "outputs": [
        {
          "internalType": "string",
          "name": "waiterName",
          "type": "string"
        },
        {
          "internalType": "address",
          "name": "waiterAddress",
          "type": "address"
        },
        {
          "internalType": "uint256",
          "name": "tip",
          "type": "uint256"
        }
      ],
      "stateMutability": "view",
      "type": "function"
    },
    {
      "inputs": [],
      "name": "withdrawTips",
      "outputs": [],
      "stateMutability": "nonpayable",
      "type": "function"
    },
    {
      "stateMutability": "payable",
      "type": "receive"
    }
  ],
  "bytecode": "0x608060405260016000553073ffffffffffffffffffffffffffffffffffffffff166108fc349081150290604051600060405180830381858888f1935050505015801561004f573d6000803e3d6000fd5b50611e068061005f6000396000f3fe6080604052600436106100c65760003560e01c80639c6f85591161007f578063a7c9de6911610059578063a7c9de6914610287578063a85c38ef146102b2578063b04dd81b146102f3578063f28db6c41461031e576100cd565b80639c6f8559146101ce578063a64468aa1461020b578063a6eaa06d14610248576100cd565b80630698cb45146100d25780632e2dc43e1461010f5780633446a7051461013a5780633aaa74b21461015157806340476f8f1461016857806340fae7ae14610191576100cd565b366100cd57005b600080fd5b3480156100de57600080fd5b506100f960048036038101906100f491906111fb565b610347565b6040516101069190611269565b60405180910390f35b34801561011b57600080fd5b5061012461037a565b604051610131919061146a565b60405180910390f35b34801561014657600080fd5b5061014f6104df565b005b34801561015d57600080fd5b506101666106c6565b005b34801561017457600080fd5b5061018f600480360381019061018a91906115c1565b610867565b005b34801561019d57600080fd5b506101b860048036038101906101b39190611636565b610987565b6040516101c59190611672565b60405180910390f35b3480156101da57600080fd5b506101f560048036038101906101f09190611636565b61099f565b60405161020291906116d7565b60405180910390f35b34801561021757600080fd5b50610232600480360381019061022d91906111fb565b610a3f565b60405161023f91906116d7565b60405180910390f35b34801561025457600080fd5b5061026f600480360381019061026a91906111fb565b610adf565b60405161027e939291906116f9565b60405180910390f35b34801561029357600080fd5b5061029c610bc1565b6040516102a99190611849565b60405180910390f35b3480156102be57600080fd5b506102d960048036038101906102d491906111fb565b610d12565b6040516102ea95949392919061186b565b60405180910390f35b3480156102ff57600080fd5b50610308610e00565b6040516103159190611672565b60405180910390f35b34801561032a57600080fd5b50610345600480360381019061034091906118c5565b610e06565b005b60046020528060005260406000206000915054906101000a900473ffffffffffffffffffffffffffffffffffffffff1681565b60606005805480602002602001604051908101604052809291908181526020016000905b828210156104d657838290600052602060002090600502016040518060a00160405290816000820154815260200160018201548152602001600282015481526020016003820160009054906101000a900473ffffffffffffffffffffffffffffffffffffffff1673ffffffffffffffffffffffffffffffffffffffff1673ffffffffffffffffffffffffffffffffffffffff16815260200160048201805461044590611934565b80601f016020809104026020016040519081016040528092919081815260200182805461047190611934565b80156104be5780601f10610493576101008083540402835291602001916104be565b820191906000526020600020905b8154815290600101906020018083116104a157829003601f168201915b5050505050815250508152602001906001019061039e565b50505050905090565b6000805b600680549050811015610580573373ffffffffffffffffffffffffffffffffffffffff166006828154811061051b5761051a611965565b5b906000526020600020906003020160010160009054906101000a900473ffffffffffffffffffffffffffffffffffffffff1673ffffffffffffffffffffffffffffffffffffffff160361056d57600191505b8080610578906119c3565b9150506104e3565b50600015158115151461059257600080fd5b60405180602001604052806000815250600160003373ffffffffffffffffffffffffffffffffffffffff1673ffffffffffffffffffffffffffffffffffffffff16815260200190815260200160002090816105ed9190611bb7565b50600660405180606001604052806040518060200160405280600081525081526020013373ffffffffffffffffffffffffffffffffffffffff16815260200160008152509080600181540180825580915050600190039060005260206000209060030201600090919091909150600082015181600001908161066f9190611bb7565b5060208201518160010160006101000a81548173ffffffffffffffffffffffffffffffffffffffff021916908373ffffffffffffffffffffffffffffffffffffffff16021790555060408201518160020155505050565b6000600260003373ffffffffffffffffffffffffffffffffffffffff1673ffffffffffffffffffffffffffffffffffffffff16815260200190815260200160002054905060003390508073ffffffffffffffffffffffffffffffffffffffff166108fc839081150290604051600060405180830381858888f19350505050158015610755573d6000803e3d6000fd5b5060005b60068054905081101561081d573373ffffffffffffffffffffffffffffffffffffffff166006828154811061079157610790611965565b5b906000526020600020906003020160010160009054906101000a900473ffffffffffffffffffffffffffffffffffffffff1673ffffffffffffffffffffffffffffffffffffffff160361080a576000600682815481106107f4576107f3611965565b5b9060005260206000209060030201600201819055505b8080610815906119c3565b915050610759565b506000600260003373ffffffffffffffffffffffffffffffffffffffff1673ffffffffffffffffffffffffffffffffffffffff168152602001908152602001600020819055505050565b60005b600680549050811015610936573373ffffffffffffffffffffffffffffffffffffffff16600682815481106108a2576108a1611965565b5b906000526020600020906003020160010160009054906101000a900473ffffffffffffffffffffffffffffffffffffffff1673ffffffffffffffffffffffffffffffffffffffff160361092357816006828154811061090457610903611965565b5b906000526020600020906003020160000190816109219190611bb7565b505b808061092e906119c3565b91505061086a565b5080600160003373ffffffffffffffffffffffffffffffffffffffff1673ffffffffffffffffffffffffffffffffffffffff16815260200190815260200160002090816109839190611bb7565b5050565b60026020528060005260406000206000915090505481565b600160205280600052604060002060009150905080546109be90611934565b80601f01602080910402602001604051908101604052809291908181526020018280546109ea90611934565b8015610a375780601f10610a0c57610100808354040283529160200191610a37565b820191906000526020600020905b815481529060010190602001808311610a1a57829003601f168201915b505050505081565b60036020528060005260406000206000915090508054610a5e90611934565b80601f0160208091040260200160405190810160405280929190818152602001828054610a8a90611934565b8015610ad75780601f10610aac57610100808354040283529160200191610ad7565b820191906000526020600020905b815481529060010190602001808311610aba57829003601f168201915b505050505081565b60068181548110610aef57600080fd5b9060005260206000209060030201600091509050806000018054610b1290611934565b80601f0160208091040260200160405190810160405280929190818152602001828054610b3e90611934565b8015610b8b5780601f10610b6057610100808354040283529160200191610b8b565b820191906000526020600020905b815481529060010190602001808311610b6e57829003601f168201915b5050505050908060010160009054906101000a900473ffffffffffffffffffffffffffffffffffffffff16908060020154905083565b60606006805480602002602001604051908101604052809291908181526020016000905b82821015610d095783829060005260206000209060030201604051806060016040529081600082018054610c1890611934565b80601f0160208091040260200160405190810160405280929190818152602001828054610c4490611934565b8015610c915780601f10610c6657610100808354040283529160200191610c91565b820191906000526020600020905b815481529060010190602001808311610c7457829003601f168201915b505050505081526020016001820160009054906101000a900473ffffffffffffffffffffffffffffffffffffffff1673ffffffffffffffffffffffffffffffffffffffff1673ffffffffffffffffffffffffffffffffffffffff16815260200160028201548152505081526020019060010190610be5565b50505050905090565b60058181548110610d2257600080fd5b90600052602060002090600502016000915090508060000154908060010154908060020154908060030160009054906101000a900473ffffffffffffffffffffffffffffffffffffffff1690806004018054610d7d90611934565b80601f0160208091040260200160405190810160405280929190818152602001828054610da990611934565b8015610df65780601f10610dcb57610100808354040283529160200191610df6565b820191906000526020600020905b815481529060010190602001808311610dd957829003601f168201915b5050505050905085565b60005481565b6000806000815480929190610e1a906119c3565b91905055905060056040518060a001604052808381526020018581526020018481526020013373ffffffffffffffffffffffffffffffffffffffff168152602001600160003373ffffffffffffffffffffffffffffffffffffffff1673ffffffffffffffffffffffffffffffffffffffff1681526020019081526020016000208054610ea590611934565b80601f0160208091040260200160405190810160405280929190818152602001828054610ed190611934565b8015610f1e5780601f10610ef357610100808354040283529160200191610f1e565b820191906000526020600020905b815481529060010190602001808311610f0157829003601f168201915b5050505050815250908060018154018082558091505060019003906000526020600020906005020160009091909190915060008201518160000155602082015181600101556040820151816002015560608201518160030160006101000a81548173ffffffffffffffffffffffffffffffffffffffff021916908373ffffffffffffffffffffffffffffffffffffffff1602179055506080820151816004019081610fc99190611bb7565b505050336004600083815260200190815260200160002060006101000a81548173ffffffffffffffffffffffffffffffffffffffff021916908373ffffffffffffffffffffffffffffffffffffffff160217905550600160003373ffffffffffffffffffffffffffffffffffffffff1673ffffffffffffffffffffffffffffffffffffffff16815260200190815260200160002060036000838152602001908152602001600020908161107c9190611cb4565b5081600260003373ffffffffffffffffffffffffffffffffffffffff1673ffffffffffffffffffffffffffffffffffffffff16815260200190815260200160002060008282546110cc9190611d9c565b9250508190555060005b6006805490508110156111ab573373ffffffffffffffffffffffffffffffffffffffff166006828154811061110e5761110d611965565b5b906000526020600020906003020160010160009054906101000a900473ffffffffffffffffffffffffffffffffffffffff1673ffffffffffffffffffffffffffffffffffffffff16036111985782600682815481106111705761116f611965565b5b906000526020600020906003020160020160008282546111909190611d9c565b925050819055505b80806111a3906119c3565b9150506110d6565b50505050565b6000604051905090565b600080fd5b600080fd5b6000819050919050565b6111d8816111c5565b81146111e357600080fd5b50565b6000813590506111f5816111cf565b92915050565b600060208284031215611211576112106111bb565b5b600061121f848285016111e6565b91505092915050565b600073ffffffffffffffffffffffffffffffffffffffff82169050919050565b600061125382611228565b9050919050565b61126381611248565b82525050565b600060208201905061127e600083018461125a565b92915050565b600081519050919050565b600082825260208201905092915050565b6000819050602082019050919050565b6112b9816111c5565b82525050565b6112c881611248565b82525050565b600081519050919050565b600082825260208201905092915050565b60005b838110156113085780820151818401526020810190506112ed565b60008484015250505050565b6000601f19601f8301169050919050565b6000611330826112ce565b61133a81856112d9565b935061134a8185602086016112ea565b61135381611314565b840191505092915050565b600060a08301600083015161137660008601826112b0565b50602083015161138960208601826112b0565b50604083015161139c60408601826112b0565b5060608301516113af60608601826112bf565b50608083015184820360808601526113c78282611325565b9150508091505092915050565b60006113e0838361135e565b905092915050565b6000602082019050919050565b600061140082611284565b61140a818561128f565b93508360208202850161141c856112a0565b8060005b85811015611458578484038952815161143985826113d4565b9450611444836113e8565b925060208a01995050600181019050611420565b50829750879550505050505092915050565b6000602082019050818103600083015261148481846113f5565b905092915050565b600080fd5b600080fd5b7f4e487b7100000000000000000000000000000000000000000000000000000000600052604160045260246000fd5b6114ce82611314565b810181811067ffffffffffffffff821117156114ed576114ec611496565b5b80604052505050565b60006115006111b1565b905061150c82826114c5565b919050565b600067ffffffffffffffff82111561152c5761152b611496565b5b61153582611314565b9050602081019050919050565b82818337600083830152505050565b600061156461155f84611511565b6114f6565b9050828152602081018484840111156115805761157f611491565b5b61158b848285611542565b509392505050565b600082601f8301126115a8576115a761148c565b5b81356115b8848260208601611551565b91505092915050565b6000602082840312156115d7576115d66111bb565b5b600082013567ffffffffffffffff8111156115f5576115f46111c0565b5b61160184828501611593565b91505092915050565b61161381611248565b811461161e57600080fd5b50565b6000813590506116308161160a565b92915050565b60006020828403121561164c5761164b6111bb565b5b600061165a84828501611621565b91505092915050565b61166c816111c5565b82525050565b60006020820190506116876000830184611663565b92915050565b600082825260208201905092915050565b60006116a9826112ce565b6116b3818561168d565b93506116c38185602086016112ea565b6116cc81611314565b840191505092915050565b600060208201905081810360008301526116f1818461169e565b905092915050565b60006060820190508181036000830152611713818661169e565b9050611722602083018561125a565b61172f6040830184611663565b949350505050565b600081519050919050565b600082825260208201905092915050565b6000819050602082019050919050565b600060608301600083015184820360008601526117808282611325565b915050602083015161179560208601826112bf565b5060408301516117a860408601826112b0565b508091505092915050565b60006117bf8383611763565b905092915050565b6000602082019050919050565b60006117df82611737565b6117e98185611742565b9350836020820285016117fb85611753565b8060005b85811015611837578484038952815161181885826117b3565b9450611823836117c7565b925060208a019950506001810190506117ff565b50829750879550505050505092915050565b6000602082019050818103600083015261186381846117d4565b905092915050565b600060a0820190506118806000830188611663565b61188d6020830187611663565b61189a6040830186611663565b6118a7606083018561125a565b81810360808301526118b9818461169e565b90509695505050505050565b600080604083850312156118dc576118db6111bb565b5b60006118ea858286016111e6565b92505060206118fb858286016111e6565b9150509250929050565b7f4e487b7100000000000000000000000000000000000000000000000000000000600052602260045260246000fd5b6000600282049050600182168061194c57607f821691505b60208210810361195f5761195e611905565b5b50919050565b7f4e487b7100000000000000000000000000000000000000000000000000000000600052603260045260246000fd5b7f4e487b7100000000000000000000000000000000000000000000000000000000600052601160045260246000fd5b60006119ce826111c5565b91507fffffffffffffffffffffffffffffffffffffffffffffffffffffffffffffffff8203611a00576119ff611994565b5b600182019050919050565b60008190508160005260206000209050919050565b60006020601f8301049050919050565b600082821b905092915050565b600060088302611a6d7fffffffffffffffffffffffffffffffffffffffffffffffffffffffffffffffff82611a30565b611a778683611a30565b95508019841693508086168417925050509392505050565b6000819050919050565b6000611ab4611aaf611aaa846111c5565b611a8f565b6111c5565b9050919050565b6000819050919050565b611ace83611a99565b611ae2611ada82611abb565b848454611a3d565b825550505050565b600090565b611af7611aea565b611b02818484611ac5565b505050565b5b81811015611b2657611b1b600082611aef565b600181019050611b08565b5050565b601f821115611b6b57611b3c81611a0b565b611b4584611a20565b81016020851015611b54578190505b611b68611b6085611a20565b830182611b07565b50505b505050565b600082821c905092915050565b6000611b8e60001984600802611b70565b1980831691505092915050565b6000611ba78383611b7d565b9150826002028217905092915050565b611bc0826112ce565b67ffffffffffffffff811115611bd957611bd8611496565b5b611be38254611934565b611bee828285611b2a565b600060209050601f831160018114611c215760008415611c0f578287015190505b611c198582611b9b565b865550611c81565b601f198416611c2f86611a0b565b60005b82811015611c5757848901518255600182019150602085019450602081019050611c32565b86831015611c745784890151611c70601f891682611b7d565b8355505b6001600288020188555050505b505050505050565b600081549050611c9881611934565b9050919050565b60008190508160005260206000209050919050565b818103611cc2575050611d9a565b611ccb82611c89565b67ffffffffffffffff811115611ce457611ce3611496565b5b611cee8254611934565b611cf9828285611b2a565b6000601f831160018114611d285760008415611d16578287015490505b611d208582611b9b565b865550611d93565b601f198416611d3687611c9f565b9650611d4186611a0b565b60005b82811015611d6957848901548255600182019150600185019450602081019050611d44565b86831015611d865784890154611d82601f891682611b7d565b8355505b6001600288020188555050505b5050505050505b565b6000611da7826111c5565b9150611db2836111c5565b9250828201905080821115611dca57611dc9611994565b5b9291505056fea2646970667358221220f4e57d7024381dfba45f323f8c4253bfa25fc2c7fff33f35124f5960f524011964736f6c63430008130033",
  "linkReferences": {},
  "deployedLinkReferences": {}
}