{"contracts/TipMe.sol":{"TipMe":{"abi":[{"inputs":[],"stateMutability":"payable","type":"constructor"},{"inputs":[{"internalType":"uint256","name":"_orderAmount","type":"uint256"},{"internalType":"uint256","name":"_tipAmount","type":"uint256"}],"name":"addOrder","outputs":[],"stateMutability":"nonpayable","type":"function"},{"inputs":[],"name":"addWaiter","outputs":[],"stateMutability":"nonpayable","type":"function"},{"inputs":[{"internalType":"address","name":"","type":"address"}],"name":"addressToWaiterName","outputs":[{"internalType":"string","name":"","type":"string"}],"stateMutability":"view","type":"function"},{"inputs":[],"name":"getOrders","outputs":[{"components":[{"internalType":"uint256","name":"orderNumber","type":"uint256"},{"internalType":"uint256","name":"orderAmount","type":"uint256"},{"internalType":"uint256","name":"tipAmount","type":"uint256"},{"internalType":"address","name":"waiterAddress","type":"address"},{"internalType":"string","name":"waiterName","type":"string"}],"internalType":"struct TipMe.Order[]","name":"","type":"tuple[]"}],"stateMutability":"view","type":"function"},{"inputs":[],"name":"getWaiters","outputs":[{"components":[{"internalType":"string","name":"waiterName","type":"string"},{"internalType":"address","name":"waiterAddress","type":"address"},{"internalType":"uint256","name":"tip","type":"uint256"}],"internalType":"struct TipMe.Waiter[]","name":"","type":"tuple[]"}],"stateMutability":"view","type":"function"},{"inputs":[],"name":"orderNumber","outputs":[{"internalType":"uint256","name":"","type":"uint256"}],"stateMutability":"view","type":"function"},{"inputs":[{"internalType":"uint256","name":"","type":"uint256"}],"name":"orderToWaiterAddress","outputs":[{"internalType":"address","name":"","type":"address"}],"stateMutability":"view","type":"function"},{"inputs":[{"internalType":"uint256","name":"","type":"uint256"}],"name":"orderToWaiterName","outputs":[{"internalType":"string","name":"","type":"string"}],"stateMutability":"view","type":"function"},{"inputs":[{"internalType":"uint256","name":"","type":"uint256"}],"name":"orders","outputs":[{"internalType":"uint256","name":"orderNumber","type":"uint256"},{"internalType":"uint256","name":"orderAmount","type":"uint256"},{"internalType":"uint256","name":"tipAmount","type":"uint256"},{"internalType":"address","name":"waiterAddress","type":"address"},{"internalType":"string","name":"waiterName","type":"string"}],"stateMutability":"view","type":"function"},{"inputs":[{"internalType":"string","name":"name","type":"string"}],"name":"updateWaiterName","outputs":[],"stateMutability":"nonpayable","type":"function"},{"inputs":[{"internalType":"address","name":"","type":"address"}],"name":"waiterToTip","outputs":[{"internalType":"uint256","name":"","type":"uint256"}],"stateMutability":"view","type":"function"},{"inputs":[{"internalType":"uint256","name":"","type":"uint256"}],"name":"waiters","outputs":[{"internalType":"string","name":"waiterName","type":"string"},{"internalType":"address","name":"waiterAddress","type":"address"},{"internalType":"uint256","name":"tip","type":"uint256"}],"stateMutability":"view","type":"function"},{"inputs":[],"name":"withdrawTips","outputs":[],"stateMutability":"nonpayable","type":"function"},{"stateMutability":"payable","type":"receive"}],"evm":{"bytecode":{"linkReferences":{},"object":"608060405260016000553073ffffffffffffffffffffffffffffffffffffffff166108fc349081150290604051600060405180830381858888f1935050505015801561004f573d6000803e3d6000fd5b50611e068061005f6000396000f3fe6080604052600436106100c65760003560e01c80639c6f85591161007f578063a7c9de6911610059578063a7c9de6914610287578063a85c38ef146102b2578063b04dd81b146102f3578063f28db6c41461031e576100cd565b80639c6f8559146101ce578063a64468aa1461020b578063a6eaa06d14610248576100cd565b80630698cb45146100d25780632e2dc43e1461010f5780633446a7051461013a5780633aaa74b21461015157806340476f8f1461016857806340fae7ae14610191576100cd565b366100cd57005b600080fd5b3480156100de57600080fd5b506100f960048036038101906100f491906111fb565b610347565b6040516101069190611269565b60405180910390f35b34801561011b57600080fd5b5061012461037a565b604051610131919061146a565b60405180910390f35b34801561014657600080fd5b5061014f6104df565b005b34801561015d57600080fd5b506101666106c6565b005b34801561017457600080fd5b5061018f600480360381019061018a91906115c1565b610867565b005b34801561019d57600080fd5b506101b860048036038101906101b39190611636565b610987565b6040516101c59190611672565b60405180910390f35b3480156101da57600080fd5b506101f560048036038101906101f09190611636565b61099f565b60405161020291906116d7565b60405180910390f35b34801561021757600080fd5b50610232600480360381019061022d91906111fb565b610a3f565b60405161023f91906116d7565b60405180910390f35b34801561025457600080fd5b5061026f600480360381019061026a91906111fb565b610adf565b60405161027e939291906116f9565b60405180910390f35b34801561029357600080fd5b5061029c610bc1565b6040516102a99190611849565b60405180910390f35b3480156102be57600080fd5b506102d960048036038101906102d491906111fb565b610d12565b6040516102ea95949392919061186b565b60405180910390f35b3480156102ff57600080fd5b50610308610e00565b6040516103159190611672565b60405180910390f35b34801561032a57600080fd5b50610345600480360381019061034091906118c5565b610e06565b005b60046020528060005260406000206000915054906101000a900473ffffffffffffffffffffffffffffffffffffffff1681565b60606005805480602002602001604051908101604052809291908181526020016000905b828210156104d657838290600052602060002090600502016040518060a00160405290816000820154815260200160018201548152602001600282015481526020016003820160009054906101000a900473ffffffffffffffffffffffffffffffffffffffff1673ffffffffffffffffffffffffffffffffffffffff1673ffffffffffffffffffffffffffffffffffffffff16815260200160048201805461044590611934565b80601f016020809104026020016040519081016040528092919081815260200182805461047190611934565b80156104be5780601f10610493576101008083540402835291602001916104be565b820191906000526020600020905b8154815290600101906020018083116104a157829003601f168201915b5050505050815250508152602001906001019061039e565b50505050905090565b6000805b600680549050811015610580573373ffffffffffffffffffffffffffffffffffffffff166006828154811061051b5761051a611965565b5b906000526020600020906003020160010160009054906101000a900473ffffffffffffffffffffffffffffffffffffffff1673ffffffffffffffffffffffffffffffffffffffff160361056d57600191505b8080610578906119c3565b9150506104e3565b50600015158115151461059257600080fd5b60405180602001604052806000815250600160003373ffffffffffffffffffffffffffffffffffffffff1673ffffffffffffffffffffffffffffffffffffffff16815260200190815260200160002090816105ed9190611bb7565b50600660405180606001604052806040518060200160405280600081525081526020013373ffffffffffffffffffffffffffffffffffffffff16815260200160008152509080600181540180825580915050600190039060005260206000209060030201600090919091909150600082015181600001908161066f9190611bb7565b5060208201518160010160006101000a81548173ffffffffffffffffffffffffffffffffffffffff021916908373ffffffffffffffffffffffffffffffffffffffff16021790555060408201518160020155505050565b6000600260003373ffffffffffffffffffffffffffffffffffffffff1673ffffffffffffffffffffffffffffffffffffffff16815260200190815260200160002054905060003390508073ffffffffffffffffffffffffffffffffffffffff166108fc839081150290604051600060405180830381858888f19350505050158015610755573d6000803e3d6000fd5b5060005b60068054905081101561081d573373ffffffffffffffffffffffffffffffffffffffff166006828154811061079157610790611965565b5b906000526020600020906003020160010160009054906101000a900473ffffffffffffffffffffffffffffffffffffffff1673ffffffffffffffffffffffffffffffffffffffff160361080a576000600682815481106107f4576107f3611965565b5b9060005260206000209060030201600201819055505b8080610815906119c3565b915050610759565b506000600260003373ffffffffffffffffffffffffffffffffffffffff1673ffffffffffffffffffffffffffffffffffffffff168152602001908152602001600020819055505050565b60005b600680549050811015610936573373ffffffffffffffffffffffffffffffffffffffff16600682815481106108a2576108a1611965565b5b906000526020600020906003020160010160009054906101000a900473ffffffffffffffffffffffffffffffffffffffff1673ffffffffffffffffffffffffffffffffffffffff160361092357816006828154811061090457610903611965565b5b906000526020600020906003020160000190816109219190611bb7565b505b808061092e906119c3565b91505061086a565b5080600160003373ffffffffffffffffffffffffffffffffffffffff1673ffffffffffffffffffffffffffffffffffffffff16815260200190815260200160002090816109839190611bb7565b5050565b60026020528060005260406000206000915090505481565b600160205280600052604060002060009150905080546109be90611934565b80601f01602080910402602001604051908101604052809291908181526020018280546109ea90611934565b8015610a375780601f10610a0c57610100808354040283529160200191610a37565b820191906000526020600020905b815481529060010190602001808311610a1a57829003601f168201915b505050505081565b60036020528060005260406000206000915090508054610a5e90611934565b80601f0160208091040260200160405190810160405280929190818152602001828054610a8a90611934565b8015610ad75780601f10610aac57610100808354040283529160200191610ad7565b820191906000526020600020905b815481529060010190602001808311610aba57829003601f168201915b505050505081565b60068181548110610aef57600080fd5b9060005260206000209060030201600091509050806000018054610b1290611934565b80601f0160208091040260200160405190810160405280929190818152602001828054610b3e90611934565b8015610b8b5780601f10610b6057610100808354040283529160200191610b8b565b820191906000526020600020905b815481529060010190602001808311610b6e57829003601f168201915b5050505050908060010160009054906101000a900473ffffffffffffffffffffffffffffffffffffffff16908060020154905083565b60606006805480602002602001604051908101604052809291908181526020016000905b82821015610d095783829060005260206000209060030201604051806060016040529081600082018054610c1890611934565b80601f0160208091040260200160405190810160405280929190818152602001828054610c4490611934565b8015610c915780601f10610c6657610100808354040283529160200191610c91565b820191906000526020600020905b815481529060010190602001808311610c7457829003601f168201915b505050505081526020016001820160009054906101000a900473ffffffffffffffffffffffffffffffffffffffff1673ffffffffffffffffffffffffffffffffffffffff1673ffffffffffffffffffffffffffffffffffffffff16815260200160028201548152505081526020019060010190610be5565b50505050905090565b60058181548110610d2257600080fd5b90600052602060002090600502016000915090508060000154908060010154908060020154908060030160009054906101000a900473ffffffffffffffffffffffffffffffffffffffff1690806004018054610d7d90611934565b80601f0160208091040260200160405190810160405280929190818152602001828054610da990611934565b8015610df65780601f10610dcb57610100808354040283529160200191610df6565b820191906000526020600020905b815481529060010190602001808311610dd957829003601f168201915b5050505050905085565b60005481565b6000806000815480929190610e1a906119c3565b91905055905060056040518060a001604052808381526020018581526020018481526020013373ffffffffffffffffffffffffffffffffffffffff168152602001600160003373ffffffffffffffffffffffffffffffffffffffff1673ffffffffffffffffffffffffffffffffffffffff1681526020019081526020016000208054610ea590611934565b80601f0160208091040260200160405190810160405280929190818152602001828054610ed190611934565b8015610f1e5780601f10610ef357610100808354040283529160200191610f1e565b820191906000526020600020905b815481529060010190602001808311610f0157829003601f168201915b5050505050815250908060018154018082558091505060019003906000526020600020906005020160009091909190915060008201518160000155602082015181600101556040820151816002015560608201518160030160006101000a81548173ffffffffffffffffffffffffffffffffffffffff021916908373ffffffffffffffffffffffffffffffffffffffff1602179055506080820151816004019081610fc99190611bb7565b505050336004600083815260200190815260200160002060006101000a81548173ffffffffffffffffffffffffffffffffffffffff021916908373ffffffffffffffffffffffffffffffffffffffff160217905550600160003373ffffffffffffffffffffffffffffffffffffffff1673ffffffffffffffffffffffffffffffffffffffff16815260200190815260200160002060036000838152602001908152602001600020908161107c9190611cb4565b5081600260003373ffffffffffffffffffffffffffffffffffffffff1673ffffffffffffffffffffffffffffffffffffffff16815260200190815260200160002060008282546110cc9190611d9c565b9250508190555060005b6006805490508110156111ab573373ffffffffffffffffffffffffffffffffffffffff166006828154811061110e5761110d611965565b5b906000526020600020906003020160010160009054906101000a900473ffffffffffffffffffffffffffffffffffffffff1673ffffffffffffffffffffffffffffffffffffffff16036111985782600682815481106111705761116f611965565b5b906000526020600020906003020160020160008282546111909190611d9c565b925050819055505b80806111a3906119c3565b9150506110d6565b50505050565b6000604051905090565b600080fd5b600080fd5b6000819050919050565b6111d8816111c5565b81146111e357600080fd5b50565b6000813590506111f5816111cf565b92915050565b600060208284031215611211576112106111bb565b5b600061121f848285016111e6565b91505092915050565b600073ffffffffffffffffffffffffffffffffffffffff82169050919050565b600061125382611228565b9050919050565b61126381611248565b82525050565b600060208201905061127e600083018461125a565b92915050565b600081519050919050565b600082825260208201905092915050565b6000819050602082019050919050565b6112b9816111c5565b82525050565b6112c881611248565b82525050565b600081519050919050565b600082825260208201905092915050565b60005b838110156113085780820151818401526020810190506112ed565b60008484015250505050565b6000601f19601f8301169050919050565b6000611330826112ce565b61133a81856112d9565b935061134a8185602086016112ea565b61135381611314565b840191505092915050565b600060a08301600083015161137660008601826112b0565b50602083015161138960208601826112b0565b50604083015161139c60408601826112b0565b5060608301516113af60608601826112bf565b50608083015184820360808601526113c78282611325565b9150508091505092915050565b60006113e0838361135e565b905092915050565b6000602082019050919050565b600061140082611284565b61140a818561128f565b93508360208202850161141c856112a0565b8060005b85811015611458578484038952815161143985826113d4565b9450611444836113e8565b925060208a01995050600181019050611420565b50829750879550505050505092915050565b6000602082019050818103600083015261148481846113f5565b905092915050565b600080fd5b600080fd5b7f4e487b7100000000000000000000000000000000000000000000000000000000600052604160045260246000fd5b6114ce82611314565b810181811067ffffffffffffffff821117156114ed576114ec611496565b5b80604052505050565b60006115006111b1565b905061150c82826114c5565b919050565b600067ffffffffffffffff82111561152c5761152b611496565b5b61153582611314565b9050602081019050919050565b82818337600083830152505050565b600061156461155f84611511565b6114f6565b9050828152602081018484840111156115805761157f611491565b5b61158b848285611542565b509392505050565b600082601f8301126115a8576115a761148c565b5b81356115b8848260208601611551565b91505092915050565b6000602082840312156115d7576115d66111bb565b5b600082013567ffffffffffffffff8111156115f5576115f46111c0565b5b61160184828501611593565b91505092915050565b61161381611248565b811461161e57600080fd5b50565b6000813590506116308161160a565b92915050565b60006020828403121561164c5761164b6111bb565b5b600061165a84828501611621565b91505092915050565b61166c816111c5565b82525050565b60006020820190506116876000830184611663565b92915050565b600082825260208201905092915050565b60006116a9826112ce565b6116b3818561168d565b93506116c38185602086016112ea565b6116cc81611314565b840191505092915050565b600060208201905081810360008301526116f1818461169e565b905092915050565b60006060820190508181036000830152611713818661169e565b9050611722602083018561125a565b61172f6040830184611663565b949350505050565b600081519050919050565b600082825260208201905092915050565b6000819050602082019050919050565b600060608301600083015184820360008601526117808282611325565b915050602083015161179560208601826112bf565b5060408301516117a860408601826112b0565b508091505092915050565b60006117bf8383611763565b905092915050565b6000602082019050919050565b60006117df82611737565b6117e98185611742565b9350836020820285016117fb85611753565b8060005b85811015611837578484038952815161181885826117b3565b9450611823836117c7565b925060208a019950506001810190506117ff565b50829750879550505050505092915050565b6000602082019050818103600083015261186381846117d4565b905092915050565b600060a0820190506118806000830188611663565b61188d6020830187611663565b61189a6040830186611663565b6118a7606083018561125a565b81810360808301526118b9818461169e565b90509695505050505050565b600080604083850312156118dc576118db6111bb565b5b60006118ea858286016111e6565b92505060206118fb858286016111e6565b9150509250929050565b7f4e487b7100000000000000000000000000000000000000000000000000000000600052602260045260246000fd5b6000600282049050600182168061194c57607f821691505b60208210810361195f5761195e611905565b5b50919050565b7f4e487b7100000000000000000000000000000000000000000000000000000000600052603260045260246000fd5b7f4e487b7100000000000000000000000000000000000000000000000000000000600052601160045260246000fd5b60006119ce826111c5565b91507fffffffffffffffffffffffffffffffffffffffffffffffffffffffffffffffff8203611a00576119ff611994565b5b600182019050919050565b60008190508160005260206000209050919050565b60006020601f8301049050919050565b600082821b905092915050565b600060088302611a6d7fffffffffffffffffffffffffffffffffffffffffffffffffffffffffffffffff82611a30565b611a778683611a30565b95508019841693508086168417925050509392505050565b6000819050919050565b6000611ab4611aaf611aaa846111c5565b611a8f565b6111c5565b9050919050565b6000819050919050565b611ace83611a99565b611ae2611ada82611abb565b848454611a3d565b825550505050565b600090565b611af7611aea565b611b02818484611ac5565b505050565b5b81811015611b2657611b1b600082611aef565b600181019050611b08565b5050565b601f821115611b6b57611b3c81611a0b565b611b4584611a20565b81016020851015611b54578190505b611b68611b6085611a20565b830182611b07565b50505b505050565b600082821c905092915050565b6000611b8e60001984600802611b70565b1980831691505092915050565b6000611ba78383611b7d565b9150826002028217905092915050565b611bc0826112ce565b67ffffffffffffffff811115611bd957611bd8611496565b5b611be38254611934565b611bee828285611b2a565b600060209050601f831160018114611c215760008415611c0f578287015190505b611c198582611b9b565b865550611c81565b601f198416611c2f86611a0b565b60005b82811015611c5757848901518255600182019150602085019450602081019050611c32565b86831015611c745784890151611c70601f891682611b7d565b8355505b6001600288020188555050505b505050505050565b600081549050611c9881611934565b9050919050565b60008190508160005260206000209050919050565b818103611cc2575050611d9a565b611ccb82611c89565b67ffffffffffffffff811115611ce457611ce3611496565b5b611cee8254611934565b611cf9828285611b2a565b6000601f831160018114611d285760008415611d16578287015490505b611d208582611b9b565b865550611d93565b601f198416611d3687611c9f565b9650611d4186611a0b565b60005b82811015611d6957848901548255600182019150600185019450602081019050611d44565b86831015611d865784890154611d82601f891682611b7d565b8355505b6001600288020188555050505b5050505050505b565b6000611da7826111c5565b9150611db2836111c5565b9250828201905080821115611dca57611dc9611994565b5b9291505056fea2646970667358221220f4e57d7024381dfba45f323f8c4253bfa25fc2c7fff33f35124f5960f524011964736f6c63430008130033","opcodes":"PUSH1 0x80 PUSH1 0x40 MSTORE PUSH1 0x1 PUSH1 0x0 SSTORE ADDRESS PUSH20 0xFFFFFFFFFFFFFFFFFFFFFFFFFFFFFFFFFFFFFFFF AND PUSH2 0x8FC CALLVALUE SWAP1 DUP2 ISZERO MUL SWAP1 PUSH1 0x40 MLOAD PUSH1 0x0 PUSH1 0x40 MLOAD DUP1 DUP4 SUB DUP2 DUP6 DUP9 DUP9 CALL SWAP4 POP POP POP POP ISZERO DUP1 ISZERO PUSH2 0x4F JUMPI RETURNDATASIZE PUSH1 0x0 DUP1 RETURNDATACOPY RETURNDATASIZE PUSH1 0x0 REVERT JUMPDEST POP PUSH2 0x1E06 DUP1 PUSH2 0x5F PUSH1 0x0 CODECOPY PUSH1 0x0 RETURN INVALID PUSH1 0x80 PUSH1 0x40 MSTORE PUSH1 0x4 CALLDATASIZE LT PUSH2 0xC6 JUMPI PUSH1 0x0 CALLDATALOAD PUSH1 0xE0 SHR DUP1 PUSH4 0x9C6F8559 GT PUSH2 0x7F JUMPI DUP1 PUSH4 0xA7C9DE69 GT PUSH2 0x59 JUMPI DUP1 PUSH4 0xA7C9DE69 EQ PUSH2 0x287 JUMPI DUP1 PUSH4 0xA85C38EF EQ PUSH2 0x2B2 JUMPI DUP1 PUSH4 0xB04DD81B EQ PUSH2 0x2F3 JUMPI DUP1 PUSH4 0xF28DB6C4 EQ PUSH2 0x31E JUMPI PUSH2 0xCD JUMP JUMPDEST DUP1 PUSH4 0x9C6F8559 EQ PUSH2 0x1CE JUMPI DUP1 PUSH4 0xA64468AA EQ PUSH2 0x20B JUMPI DUP1 PUSH4 0xA6EAA06D EQ PUSH2 0x248 JUMPI PUSH2 0xCD JUMP JUMPDEST DUP1 PUSH4 0x698CB45 EQ PUSH2 0xD2 JUMPI DUP1 PUSH4 0x2E2DC43E EQ PUSH2 0x10F JUMPI DUP1 PUSH4 0x3446A705 EQ PUSH2 0x13A JUMPI DUP1 PUSH4 0x3AAA74B2 EQ PUSH2 0x151 JUMPI DUP1 PUSH4 0x40476F8F EQ PUSH2 0x168 JUMPI DUP1 PUSH4 0x40FAE7AE EQ PUSH2 0x191 JUMPI PUSH2 0xCD JUMP JUMPDEST CALLDATASIZE PUSH2 0xCD JUMPI STOP JUMPDEST PUSH1 0x0 DUP1 REVERT JUMPDEST CALLVALUE DUP1 ISZERO PUSH2 0xDE JUMPI PUSH1 0x0 DUP1 REVERT JUMPDEST POP PUSH2 0xF9 PUSH1 0x4 DUP1 CALLDATASIZE SUB DUP2 ADD SWAP1 PUSH2 0xF4 SWAP2 SWAP1 PUSH2 0x11FB JUMP JUMPDEST PUSH2 0x347 JUMP JUMPDEST PUSH1 0x40 MLOAD PUSH2 0x106 SWAP2 SWAP1 PUSH2 0x1269 JUMP JUMPDEST PUSH1 0x40 MLOAD DUP1 SWAP2 SUB SWAP1 RETURN JUMPDEST CALLVALUE DUP1 ISZERO PUSH2 0x11B JUMPI PUSH1 0x0 DUP1 REVERT JUMPDEST POP PUSH2 0x124 PUSH2 0x37A JUMP JUMPDEST PUSH1 0x40 MLOAD PUSH2 0x131 SWAP2 SWAP1 PUSH2 0x146A JUMP JUMPDEST PUSH1 0x40 MLOAD DUP1 SWAP2 SUB SWAP1 RETURN JUMPDEST CALLVALUE DUP1 ISZERO PUSH2 0x146 JUMPI PUSH1 0x0 DUP1 REVERT JUMPDEST POP PUSH2 0x14F PUSH2 0x4DF JUMP JUMPDEST STOP JUMPDEST CALLVALUE DUP1 ISZERO PUSH2 0x15D JUMPI PUSH1 0x0 DUP1 REVERT JUMPDEST POP PUSH2 0x166 PUSH2 0x6C6 JUMP JUMPDEST STOP JUMPDEST CALLVALUE DUP1 ISZERO PUSH2 0x174 JUMPI PUSH1 0x0 DUP1 REVERT JUMPDEST POP PUSH2 0x18F PUSH1 0x4 DUP1 CALLDATASIZE SUB DUP2 ADD SWAP1 PUSH2 0x18A SWAP2 SWAP1 PUSH2 0x15C1 JUMP JUMPDEST PUSH2 0x867 JUMP JUMPDEST STOP JUMPDEST CALLVALUE DUP1 ISZERO PUSH2 0x19D JUMPI PUSH1 0x0 DUP1 REVERT JUMPDEST POP PUSH2 0x1B8 PUSH1 0x4 DUP1 CALLDATASIZE SUB DUP2 ADD SWAP1 PUSH2 0x1B3 SWAP2 SWAP1 PUSH2 0x1636 JUMP JUMPDEST PUSH2 0x987 JUMP JUMPDEST PUSH1 0x40 MLOAD PUSH2 0x1C5 SWAP2 SWAP1 PUSH2 0x1672 JUMP JUMPDEST PUSH1 0x40 MLOAD DUP1 SWAP2 SUB SWAP1 RETURN JUMPDEST CALLVALUE DUP1 ISZERO PUSH2 0x1DA JUMPI PUSH1 0x0 DUP1 REVERT JUMPDEST POP PUSH2 0x1F5 PUSH1 0x4 DUP1 CALLDATASIZE SUB DUP2 ADD SWAP1 PUSH2 0x1F0 SWAP2 SWAP1 PUSH2 0x1636 JUMP JUMPDEST PUSH2 0x99F JUMP JUMPDEST PUSH1 0x40 MLOAD PUSH2 0x202 SWAP2 SWAP1 PUSH2 0x16D7 JUMP JUMPDEST PUSH1 0x40 MLOAD DUP1 SWAP2 SUB SWAP1 RETURN JUMPDEST CALLVALUE DUP1 ISZERO PUSH2 0x217 JUMPI PUSH1 0x0 DUP1 REVERT JUMPDEST POP PUSH2 0x232 PUSH1 0x4 DUP1 CALLDATASIZE SUB DUP2 ADD SWAP1 PUSH2 0x22D SWAP2 SWAP1 PUSH2 0x11FB JUMP JUMPDEST PUSH2 0xA3F JUMP JUMPDEST PUSH1 0x40 MLOAD PUSH2 0x23F SWAP2 SWAP1 PUSH2 0x16D7 JUMP JUMPDEST PUSH1 0x40 MLOAD DUP1 SWAP2 SUB SWAP1 RETURN JUMPDEST CALLVALUE DUP1 ISZERO PUSH2 0x254 JUMPI PUSH1 0x0 DUP1 REVERT JUMPDEST POP PUSH2 0x26F PUSH1 0x4 DUP1 CALLDATASIZE SUB DUP2 ADD SWAP1 PUSH2 0x26A SWAP2 SWAP1 PUSH2 0x11FB JUMP JUMPDEST PUSH2 0xADF JUMP JUMPDEST PUSH1 0x40 MLOAD PUSH2 0x27E SWAP4 SWAP3 SWAP2 SWAP1 PUSH2 0x16F9 JUMP JUMPDEST PUSH1 0x40 MLOAD DUP1 SWAP2 SUB SWAP1 RETURN JUMPDEST CALLVALUE DUP1 ISZERO PUSH2 0x293 JUMPI PUSH1 0x0 DUP1 REVERT JUMPDEST POP PUSH2 0x29C PUSH2 0xBC1 JUMP JUMPDEST PUSH1 0x40 MLOAD PUSH2 0x2A9 SWAP2 SWAP1 PUSH2 0x1849 JUMP JUMPDEST PUSH1 0x40 MLOAD DUP1 SWAP2 SUB SWAP1 RETURN JUMPDEST CALLVALUE DUP1 ISZERO PUSH2 0x2BE JUMPI PUSH1 0x0 DUP1 REVERT JUMPDEST POP PUSH2 0x2D9 PUSH1 0x4 DUP1 CALLDATASIZE SUB DUP2 ADD SWAP1 PUSH2 0x2D4 SWAP2 SWAP1 PUSH2 0x11FB JUMP JUMPDEST PUSH2 0xD12 JUMP JUMPDEST PUSH1 0x40 MLOAD PUSH2 0x2EA SWAP6 SWAP5 SWAP4 SWAP3 SWAP2 SWAP1 PUSH2 0x186B JUMP JUMPDEST PUSH1 0x40 MLOAD DUP1 SWAP2 SUB SWAP1 RETURN JUMPDEST CALLVALUE DUP1 ISZERO PUSH2 0x2FF JUMPI PUSH1 0x0 DUP1 REVERT JUMPDEST POP PUSH2 0x308 PUSH2 0xE00 JUMP JUMPDEST PUSH1 0x40 MLOAD PUSH2 0x315 SWAP2 SWAP1 PUSH2 0x1672 JUMP JUMPDEST PUSH1 0x40 MLOAD DUP1 SWAP2 SUB SWAP1 RETURN JUMPDEST CALLVALUE DUP1 ISZERO PUSH2 0x32A JUMPI PUSH1 0x0 DUP1 REVERT JUMPDEST POP PUSH2 0x345 PUSH1 0x4 DUP1 CALLDATASIZE SUB DUP2 ADD SWAP1 PUSH2 0x340 SWAP2 SWAP1 PUSH2 0x18C5 JUMP JUMPDEST PUSH2 0xE06 JUMP JUMPDEST STOP JUMPDEST PUSH1 0x4 PUSH1 0x20 MSTORE DUP1 PUSH1 0x0 MSTORE PUSH1 0x40 PUSH1 0x0 KECCAK256 PUSH1 0x0 SWAP2 POP SLOAD SWAP1 PUSH2 0x100 EXP SWAP1 DIV PUSH20 0xFFFFFFFFFFFFFFFFFFFFFFFFFFFFFFFFFFFFFFFF AND DUP2 JUMP JUMPDEST PUSH1 0x60 PUSH1 0x5 DUP1 SLOAD DUP1 PUSH1 0x20 MUL PUSH1 0x20 ADD PUSH1 0x40 MLOAD SWAP1 DUP2 ADD PUSH1 0x40 MSTORE DUP1 SWAP3 SWAP2 SWAP1 DUP2 DUP2 MSTORE PUSH1 0x20 ADD PUSH1 0x0 SWAP1 JUMPDEST DUP3 DUP3 LT ISZERO PUSH2 0x4D6 JUMPI DUP4 DUP3 SWAP1 PUSH1 0x0 MSTORE PUSH1 0x20 PUSH1 0x0 KECCAK256 SWAP1 PUSH1 0x5 MUL ADD PUSH1 0x40 MLOAD DUP1 PUSH1 0xA0 ADD PUSH1 0x40 MSTORE SWAP1 DUP2 PUSH1 0x0 DUP3 ADD SLOAD DUP2 MSTORE PUSH1 0x20 ADD PUSH1 0x1 DUP3 ADD SLOAD DUP2 MSTORE PUSH1 0x20 ADD PUSH1 0x2 DUP3 ADD SLOAD DUP2 MSTORE PUSH1 0x20 ADD PUSH1 0x3 DUP3 ADD PUSH1 0x0 SWAP1 SLOAD SWAP1 PUSH2 0x100 EXP SWAP1 DIV PUSH20 0xFFFFFFFFFFFFFFFFFFFFFFFFFFFFFFFFFFFFFFFF AND PUSH20 0xFFFFFFFFFFFFFFFFFFFFFFFFFFFFFFFFFFFFFFFF AND PUSH20 0xFFFFFFFFFFFFFFFFFFFFFFFFFFFFFFFFFFFFFFFF AND DUP2 MSTORE PUSH1 0x20 ADD PUSH1 0x4 DUP3 ADD DUP1 SLOAD PUSH2 0x445 SWAP1 PUSH2 0x1934 JUMP JUMPDEST DUP1 PUSH1 0x1F ADD PUSH1 0x20 DUP1 SWAP2 DIV MUL PUSH1 0x20 ADD PUSH1 0x40 MLOAD SWAP1 DUP2 ADD PUSH1 0x40 MSTORE DUP1 SWAP3 SWAP2 SWAP1 DUP2 DUP2 MSTORE PUSH1 0x20 ADD DUP3 DUP1 SLOAD PUSH2 0x471 SWAP1 PUSH2 0x1934 JUMP JUMPDEST DUP1 ISZERO PUSH2 0x4BE JUMPI DUP1 PUSH1 0x1F LT PUSH2 0x493 JUMPI PUSH2 0x100 DUP1 DUP4 SLOAD DIV MUL DUP4 MSTORE SWAP2 PUSH1 0x20 ADD SWAP2 PUSH2 0x4BE JUMP JUMPDEST DUP3 ADD SWAP2 SWAP1 PUSH1 0x0 MSTORE PUSH1 0x20 PUSH1 0x0 KECCAK256 SWAP1 JUMPDEST DUP2 SLOAD DUP2 MSTORE SWAP1 PUSH1 0x1 ADD SWAP1 PUSH1 0x20 ADD DUP1 DUP4 GT PUSH2 0x4A1 JUMPI DUP3 SWAP1 SUB PUSH1 0x1F AND DUP3 ADD SWAP2 JUMPDEST POP POP POP POP POP DUP2 MSTORE POP POP DUP2 MSTORE PUSH1 0x20 ADD SWAP1 PUSH1 0x1 ADD SWAP1 PUSH2 0x39E JUMP JUMPDEST POP POP POP POP SWAP1 POP SWAP1 JUMP JUMPDEST PUSH1 0x0 DUP1 JUMPDEST PUSH1 0x6 DUP1 SLOAD SWAP1 POP DUP2 LT ISZERO PUSH2 0x580 JUMPI CALLER PUSH20 0xFFFFFFFFFFFFFFFFFFFFFFFFFFFFFFFFFFFFFFFF AND PUSH1 0x6 DUP3 DUP2 SLOAD DUP2 LT PUSH2 0x51B JUMPI PUSH2 0x51A PUSH2 0x1965 JUMP JUMPDEST JUMPDEST SWAP1 PUSH1 0x0 MSTORE PUSH1 0x20 PUSH1 0x0 KECCAK256 SWAP1 PUSH1 0x3 MUL ADD PUSH1 0x1 ADD PUSH1 0x0 SWAP1 SLOAD SWAP1 PUSH2 0x100 EXP SWAP1 DIV PUSH20 0xFFFFFFFFFFFFFFFFFFFFFFFFFFFFFFFFFFFFFFFF AND PUSH20 0xFFFFFFFFFFFFFFFFFFFFFFFFFFFFFFFFFFFFFFFF AND SUB PUSH2 0x56D JUMPI PUSH1 0x1 SWAP2 POP JUMPDEST DUP1 DUP1 PUSH2 0x578 SWAP1 PUSH2 0x19C3 JUMP JUMPDEST SWAP2 POP POP PUSH2 0x4E3 JUMP JUMPDEST POP PUSH1 0x0 ISZERO ISZERO DUP2 ISZERO ISZERO EQ PUSH2 0x592 JUMPI PUSH1 0x0 DUP1 REVERT JUMPDEST PUSH1 0x40 MLOAD DUP1 PUSH1 0x20 ADD PUSH1 0x40 MSTORE DUP1 PUSH1 0x0 DUP2 MSTORE POP PUSH1 0x1 PUSH1 0x0 CALLER PUSH20 0xFFFFFFFFFFFFFFFFFFFFFFFFFFFFFFFFFFFFFFFF AND PUSH20 0xFFFFFFFFFFFFFFFFFFFFFFFFFFFFFFFFFFFFFFFF AND DUP2 MSTORE PUSH1 0x20 ADD SWAP1 DUP2 MSTORE PUSH1 0x20 ADD PUSH1 0x0 KECCAK256 SWAP1 DUP2 PUSH2 0x5ED SWAP2 SWAP1 PUSH2 0x1BB7 JUMP JUMPDEST POP PUSH1 0x6 PUSH1 0x40 MLOAD DUP1 PUSH1 0x60 ADD PUSH1 0x40 MSTORE DUP1 PUSH1 0x40 MLOAD DUP1 PUSH1 0x20 ADD PUSH1 0x40 MSTORE DUP1 PUSH1 0x0 DUP2 MSTORE POP DUP2 MSTORE PUSH1 0x20 ADD CALLER PUSH20 0xFFFFFFFFFFFFFFFFFFFFFFFFFFFFFFFFFFFFFFFF AND DUP2 MSTORE PUSH1 0x20 ADD PUSH1 0x0 DUP2 MSTORE POP SWAP1 DUP1 PUSH1 0x1 DUP2 SLOAD ADD DUP1 DUP3 SSTORE DUP1 SWAP2 POP POP PUSH1 0x1 SWAP1 SUB SWAP1 PUSH1 0x0 MSTORE PUSH1 0x20 PUSH1 0x0 KECCAK256 SWAP1 PUSH1 0x3 MUL ADD PUSH1 0x0 SWAP1 SWAP2 SWAP1 SWAP2 SWAP1 SWAP2 POP PUSH1 0x0 DUP3 ADD MLOAD DUP2 PUSH1 0x0 ADD SWAP1 DUP2 PUSH2 0x66F SWAP2 SWAP1 PUSH2 0x1BB7 JUMP JUMPDEST POP PUSH1 0x20 DUP3 ADD MLOAD DUP2 PUSH1 0x1 ADD PUSH1 0x0 PUSH2 0x100 EXP DUP2 SLOAD DUP2 PUSH20 0xFFFFFFFFFFFFFFFFFFFFFFFFFFFFFFFFFFFFFFFF MUL NOT AND SWAP1 DUP4 PUSH20 0xFFFFFFFFFFFFFFFFFFFFFFFFFFFFFFFFFFFFFFFF AND MUL OR SWAP1 SSTORE POP PUSH1 0x40 DUP3 ADD MLOAD DUP2 PUSH1 0x2 ADD SSTORE POP POP POP JUMP JUMPDEST PUSH1 0x0 PUSH1 0x2 PUSH1 0x0 CALLER PUSH20 0xFFFFFFFFFFFFFFFFFFFFFFFFFFFFFFFFFFFFFFFF AND PUSH20 0xFFFFFFFFFFFFFFFFFFFFFFFFFFFFFFFFFFFFFFFF AND DUP2 MSTORE PUSH1 0x20 ADD SWAP1 DUP2 MSTORE PUSH1 0x20 ADD PUSH1 0x0 KECCAK256 SLOAD SWAP1 POP PUSH1 0x0 CALLER SWAP1 POP DUP1 PUSH20 0xFFFFFFFFFFFFFFFFFFFFFFFFFFFFFFFFFFFFFFFF AND PUSH2 0x8FC DUP4 SWAP1 DUP2 ISZERO MUL SWAP1 PUSH1 0x40 MLOAD PUSH1 0x0 PUSH1 0x40 MLOAD DUP1 DUP4 SUB DUP2 DUP6 DUP9 DUP9 CALL SWAP4 POP POP POP POP ISZERO DUP1 ISZERO PUSH2 0x755 JUMPI RETURNDATASIZE PUSH1 0x0 DUP1 RETURNDATACOPY RETURNDATASIZE PUSH1 0x0 REVERT JUMPDEST POP PUSH1 0x0 JUMPDEST PUSH1 0x6 DUP1 SLOAD SWAP1 POP DUP2 LT ISZERO PUSH2 0x81D JUMPI CALLER PUSH20 0xFFFFFFFFFFFFFFFFFFFFFFFFFFFFFFFFFFFFFFFF AND PUSH1 0x6 DUP3 DUP2 SLOAD DUP2 LT PUSH2 0x791 JUMPI PUSH2 0x790 PUSH2 0x1965 JUMP JUMPDEST JUMPDEST SWAP1 PUSH1 0x0 MSTORE PUSH1 0x20 PUSH1 0x0 KECCAK256 SWAP1 PUSH1 0x3 MUL ADD PUSH1 0x1 ADD PUSH1 0x0 SWAP1 SLOAD SWAP1 PUSH2 0x100 EXP SWAP1 DIV PUSH20 0xFFFFFFFFFFFFFFFFFFFFFFFFFFFFFFFFFFFFFFFF AND PUSH20 0xFFFFFFFFFFFFFFFFFFFFFFFFFFFFFFFFFFFFFFFF AND SUB PUSH2 0x80A JUMPI PUSH1 0x0 PUSH1 0x6 DUP3 DUP2 SLOAD DUP2 LT PUSH2 0x7F4 JUMPI PUSH2 0x7F3 PUSH2 0x1965 JUMP JUMPDEST JUMPDEST SWAP1 PUSH1 0x0 MSTORE PUSH1 0x20 PUSH1 0x0 KECCAK256 SWAP1 PUSH1 0x3 MUL ADD PUSH1 0x2 ADD DUP2 SWAP1 SSTORE POP JUMPDEST DUP1 DUP1 PUSH2 0x815 SWAP1 PUSH2 0x19C3 JUMP JUMPDEST SWAP2 POP POP PUSH2 0x759 JUMP JUMPDEST POP PUSH1 0x0 PUSH1 0x2 PUSH1 0x0 CALLER PUSH20 0xFFFFFFFFFFFFFFFFFFFFFFFFFFFFFFFFFFFFFFFF AND PUSH20 0xFFFFFFFFFFFFFFFFFFFFFFFFFFFFFFFFFFFFFFFF AND DUP2 MSTORE PUSH1 0x20 ADD SWAP1 DUP2 MSTORE PUSH1 0x20 ADD PUSH1 0x0 KECCAK256 DUP2 SWAP1 SSTORE POP POP POP JUMP JUMPDEST PUSH1 0x0 JUMPDEST PUSH1 0x6 DUP1 SLOAD SWAP1 POP DUP2 LT ISZERO PUSH2 0x936 JUMPI CALLER PUSH20 0xFFFFFFFFFFFFFFFFFFFFFFFFFFFFFFFFFFFFFFFF AND PUSH1 0x6 DUP3 DUP2 SLOAD DUP2 LT PUSH2 0x8A2 JUMPI PUSH2 0x8A1 PUSH2 0x1965 JUMP JUMPDEST JUMPDEST SWAP1 PUSH1 0x0 MSTORE PUSH1 0x20 PUSH1 0x0 KECCAK256 SWAP1 PUSH1 0x3 MUL ADD PUSH1 0x1 ADD PUSH1 0x0 SWAP1 SLOAD SWAP1 PUSH2 0x100 EXP SWAP1 DIV PUSH20 0xFFFFFFFFFFFFFFFFFFFFFFFFFFFFFFFFFFFFFFFF AND PUSH20 0xFFFFFFFFFFFFFFFFFFFFFFFFFFFFFFFFFFFFFFFF AND SUB PUSH2 0x923 JUMPI DUP2 PUSH1 0x6 DUP3 DUP2 SLOAD DUP2 LT PUSH2 0x904 JUMPI PUSH2 0x903 PUSH2 0x1965 JUMP JUMPDEST JUMPDEST SWAP1 PUSH1 0x0 MSTORE PUSH1 0x20 PUSH1 0x0 KECCAK256 SWAP1 PUSH1 0x3 MUL ADD PUSH1 0x0 ADD SWAP1 DUP2 PUSH2 0x921 SWAP2 SWAP1 PUSH2 0x1BB7 JUMP JUMPDEST POP JUMPDEST DUP1 DUP1 PUSH2 0x92E SWAP1 PUSH2 0x19C3 JUMP JUMPDEST SWAP2 POP POP PUSH2 0x86A JUMP JUMPDEST POP DUP1 PUSH1 0x1 PUSH1 0x0 CALLER PUSH20 0xFFFFFFFFFFFFFFFFFFFFFFFFFFFFFFFFFFFFFFFF AND PUSH20 0xFFFFFFFFFFFFFFFFFFFFFFFFFFFFFFFFFFFFFFFF AND DUP2 MSTORE PUSH1 0x20 ADD SWAP1 DUP2 MSTORE PUSH1 0x20 ADD PUSH1 0x0 KECCAK256 SWAP1 DUP2 PUSH2 0x983 SWAP2 SWAP1 PUSH2 0x1BB7 JUMP JUMPDEST POP POP JUMP JUMPDEST PUSH1 0x2 PUSH1 0x20 MSTORE DUP1 PUSH1 0x0 MSTORE PUSH1 0x40 PUSH1 0x0 KECCAK256 PUSH1 0x0 SWAP2 POP SWAP1 POP SLOAD DUP2 JUMP JUMPDEST PUSH1 0x1 PUSH1 0x20 MSTORE DUP1 PUSH1 0x0 MSTORE PUSH1 0x40 PUSH1 0x0 KECCAK256 PUSH1 0x0 SWAP2 POP SWAP1 POP DUP1 SLOAD PUSH2 0x9BE SWAP1 PUSH2 0x1934 JUMP JUMPDEST DUP1 PUSH1 0x1F ADD PUSH1 0x20 DUP1 SWAP2 DIV MUL PUSH1 0x20 ADD PUSH1 0x40 MLOAD SWAP1 DUP2 ADD PUSH1 0x40 MSTORE DUP1 SWAP3 SWAP2 SWAP1 DUP2 DUP2 MSTORE PUSH1 0x20 ADD DUP3 DUP1 SLOAD PUSH2 0x9EA SWAP1 PUSH2 0x1934 JUMP JUMPDEST DUP1 ISZERO PUSH2 0xA37 JUMPI DUP1 PUSH1 0x1F LT PUSH2 0xA0C JUMPI PUSH2 0x100 DUP1 DUP4 SLOAD DIV MUL DUP4 MSTORE SWAP2 PUSH1 0x20 ADD SWAP2 PUSH2 0xA37 JUMP JUMPDEST DUP3 ADD SWAP2 SWAP1 PUSH1 0x0 MSTORE PUSH1 0x20 PUSH1 0x0 KECCAK256 SWAP1 JUMPDEST DUP2 SLOAD DUP2 MSTORE SWAP1 PUSH1 0x1 ADD SWAP1 PUSH1 0x20 ADD DUP1 DUP4 GT PUSH2 0xA1A JUMPI DUP3 SWAP1 SUB PUSH1 0x1F AND DUP3 ADD SWAP2 JUMPDEST POP POP POP POP POP DUP2 JUMP JUMPDEST PUSH1 0x3 PUSH1 0x20 MSTORE DUP1 PUSH1 0x0 MSTORE PUSH1 0x40 PUSH1 0x0 KECCAK256 PUSH1 0x0 SWAP2 POP SWAP1 POP DUP1 SLOAD PUSH2 0xA5E SWAP1 PUSH2 0x1934 JUMP JUMPDEST DUP1 PUSH1 0x1F ADD PUSH1 0x20 DUP1 SWAP2 DIV MUL PUSH1 0x20 ADD PUSH1 0x40 MLOAD SWAP1 DUP2 ADD PUSH1 0x40 MSTORE DUP1 SWAP3 SWAP2 SWAP1 DUP2 DUP2 MSTORE PUSH1 0x20 ADD DUP3 DUP1 SLOAD PUSH2 0xA8A SWAP1 PUSH2 0x1934 JUMP JUMPDEST DUP1 ISZERO PUSH2 0xAD7 JUMPI DUP1 PUSH1 0x1F LT PUSH2 0xAAC JUMPI PUSH2 0x100 DUP1 DUP4 SLOAD DIV MUL DUP4 MSTORE SWAP2 PUSH1 0x20 ADD SWAP2 PUSH2 0xAD7 JUMP JUMPDEST DUP3 ADD SWAP2 SWAP1 PUSH1 0x0 MSTORE PUSH1 0x20 PUSH1 0x0 KECCAK256 SWAP1 JUMPDEST DUP2 SLOAD DUP2 MSTORE SWAP1 PUSH1 0x1 ADD SWAP1 PUSH1 0x20 ADD DUP1 DUP4 GT PUSH2 0xABA JUMPI DUP3 SWAP1 SUB PUSH1 0x1F AND DUP3 ADD SWAP2 JUMPDEST POP POP POP POP POP DUP2 JUMP JUMPDEST PUSH1 0x6 DUP2 DUP2 SLOAD DUP2 LT PUSH2 0xAEF JUMPI PUSH1 0x0 DUP1 REVERT JUMPDEST SWAP1 PUSH1 0x0 MSTORE PUSH1 0x20 PUSH1 0x0 KECCAK256 SWAP1 PUSH1 0x3 MUL ADD PUSH1 0x0 SWAP2 POP SWAP1 POP DUP1 PUSH1 0x0 ADD DUP1 SLOAD PUSH2 0xB12 SWAP1 PUSH2 0x1934 JUMP JUMPDEST DUP1 PUSH1 0x1F ADD PUSH1 0x20 DUP1 SWAP2 DIV MUL PUSH1 0x20 ADD PUSH1 0x40 MLOAD SWAP1 DUP2 ADD PUSH1 0x40 MSTORE DUP1 SWAP3 SWAP2 SWAP1 DUP2 DUP2 MSTORE PUSH1 0x20 ADD DUP3 DUP1 SLOAD PUSH2 0xB3E SWAP1 PUSH2 0x1934 JUMP JUMPDEST DUP1 ISZERO PUSH2 0xB8B JUMPI DUP1 PUSH1 0x1F LT PUSH2 0xB60 JUMPI PUSH2 0x100 DUP1 DUP4 SLOAD DIV MUL DUP4 MSTORE SWAP2 PUSH1 0x20 ADD SWAP2 PUSH2 0xB8B JUMP JUMPDEST DUP3 ADD SWAP2 SWAP1 PUSH1 0x0 MSTORE PUSH1 0x20 PUSH1 0x0 KECCAK256 SWAP1 JUMPDEST DUP2 SLOAD DUP2 MSTORE SWAP1 PUSH1 0x1 ADD SWAP1 PUSH1 0x20 ADD DUP1 DUP4 GT PUSH2 0xB6E JUMPI DUP3 SWAP1 SUB PUSH1 0x1F AND DUP3 ADD SWAP2 JUMPDEST POP POP POP POP POP SWAP1 DUP1 PUSH1 0x1 ADD PUSH1 0x0 SWAP1 SLOAD SWAP1 PUSH2 0x100 EXP SWAP1 DIV PUSH20 0xFFFFFFFFFFFFFFFFFFFFFFFFFFFFFFFFFFFFFFFF AND SWAP1 DUP1 PUSH1 0x2 ADD SLOAD SWAP1 POP DUP4 JUMP JUMPDEST PUSH1 0x60 PUSH1 0x6 DUP1 SLOAD DUP1 PUSH1 0x20 MUL PUSH1 0x20 ADD PUSH1 0x40 MLOAD SWAP1 DUP2 ADD PUSH1 0x40 MSTORE DUP1 SWAP3 SWAP2 SWAP1 DUP2 DUP2 MSTORE PUSH1 0x20 ADD PUSH1 0x0 SWAP1 JUMPDEST DUP3 DUP3 LT ISZERO PUSH2 0xD09 JUMPI DUP4 DUP3 SWAP1 PUSH1 0x0 MSTORE PUSH1 0x20 PUSH1 0x0 KECCAK256 SWAP1 PUSH1 0x3 MUL ADD PUSH1 0x40 MLOAD DUP1 PUSH1 0x60 ADD PUSH1 0x40 MSTORE SWAP1 DUP2 PUSH1 0x0 DUP3 ADD DUP1 SLOAD PUSH2 0xC18 SWAP1 PUSH2 0x1934 JUMP JUMPDEST DUP1 PUSH1 0x1F ADD PUSH1 0x20 DUP1 SWAP2 DIV MUL PUSH1 0x20 ADD PUSH1 0x40 MLOAD SWAP1 DUP2 ADD PUSH1 0x40 MSTORE DUP1 SWAP3 SWAP2 SWAP1 DUP2 DUP2 MSTORE PUSH1 0x20 ADD DUP3 DUP1 SLOAD PUSH2 0xC44 SWAP1 PUSH2 0x1934 JUMP JUMPDEST DUP1 ISZERO PUSH2 0xC91 JUMPI DUP1 PUSH1 0x1F LT PUSH2 0xC66 JUMPI PUSH2 0x100 DUP1 DUP4 SLOAD DIV MUL DUP4 MSTORE SWAP2 PUSH1 0x20 ADD SWAP2 PUSH2 0xC91 JUMP JUMPDEST DUP3 ADD SWAP2 SWAP1 PUSH1 0x0 MSTORE PUSH1 0x20 PUSH1 0x0 KECCAK256 SWAP1 JUMPDEST DUP2 SLOAD DUP2 MSTORE SWAP1 PUSH1 0x1 ADD SWAP1 PUSH1 0x20 ADD DUP1 DUP4 GT PUSH2 0xC74 JUMPI DUP3 SWAP1 SUB PUSH1 0x1F AND DUP3 ADD SWAP2 JUMPDEST POP POP POP POP POP DUP2 MSTORE PUSH1 0x20 ADD PUSH1 0x1 DUP3 ADD PUSH1 0x0 SWAP1 SLOAD SWAP1 PUSH2 0x100 EXP SWAP1 DIV PUSH20 0xFFFFFFFFFFFFFFFFFFFFFFFFFFFFFFFFFFFFFFFF AND PUSH20 0xFFFFFFFFFFFFFFFFFFFFFFFFFFFFFFFFFFFFFFFF AND PUSH20 0xFFFFFFFFFFFFFFFFFFFFFFFFFFFFFFFFFFFFFFFF AND DUP2 MSTORE PUSH1 0x20 ADD PUSH1 0x2 DUP3 ADD SLOAD DUP2 MSTORE POP POP DUP2 MSTORE PUSH1 0x20 ADD SWAP1 PUSH1 0x1 ADD SWAP1 PUSH2 0xBE5 JUMP JUMPDEST POP POP POP POP SWAP1 POP SWAP1 JUMP JUMPDEST PUSH1 0x5 DUP2 DUP2 SLOAD DUP2 LT PUSH2 0xD22 JUMPI PUSH1 0x0 DUP1 REVERT JUMPDEST SWAP1 PUSH1 0x0 MSTORE PUSH1 0x20 PUSH1 0x0 KECCAK256 SWAP1 PUSH1 0x5 MUL ADD PUSH1 0x0 SWAP2 POP SWAP1 POP DUP1 PUSH1 0x0 ADD SLOAD SWAP1 DUP1 PUSH1 0x1 ADD SLOAD SWAP1 DUP1 PUSH1 0x2 ADD SLOAD SWAP1 DUP1 PUSH1 0x3 ADD PUSH1 0x0 SWAP1 SLOAD SWAP1 PUSH2 0x100 EXP SWAP1 DIV PUSH20 0xFFFFFFFFFFFFFFFFFFFFFFFFFFFFFFFFFFFFFFFF AND SWAP1 DUP1 PUSH1 0x4 ADD DUP1 SLOAD PUSH2 0xD7D SWAP1 PUSH2 0x1934 JUMP JUMPDEST DUP1 PUSH1 0x1F ADD PUSH1 0x20 DUP1 SWAP2 DIV MUL PUSH1 0x20 ADD PUSH1 0x40 MLOAD SWAP1 DUP2 ADD PUSH1 0x40 MSTORE DUP1 SWAP3 SWAP2 SWAP1 DUP2 DUP2 MSTORE PUSH1 0x20 ADD DUP3 DUP1 SLOAD PUSH2 0xDA9 SWAP1 PUSH2 0x1934 JUMP JUMPDEST DUP1 ISZERO PUSH2 0xDF6 JUMPI DUP1 PUSH1 0x1F LT PUSH2 0xDCB JUMPI PUSH2 0x100 DUP1 DUP4 SLOAD DIV MUL DUP4 MSTORE SWAP2 PUSH1 0x20 ADD SWAP2 PUSH2 0xDF6 JUMP JUMPDEST DUP3 ADD SWAP2 SWAP1 PUSH1 0x0 MSTORE PUSH1 0x20 PUSH1 0x0 KECCAK256 SWAP1 JUMPDEST DUP2 SLOAD DUP2 MSTORE SWAP1 PUSH1 0x1 ADD SWAP1 PUSH1 0x20 ADD DUP1 DUP4 GT PUSH2 0xDD9 JUMPI DUP3 SWAP1 SUB PUSH1 0x1F AND DUP3 ADD SWAP2 JUMPDEST POP POP POP POP POP SWAP1 POP DUP6 JUMP JUMPDEST PUSH1 0x0 SLOAD DUP2 JUMP JUMPDEST PUSH1 0x0 DUP1 PUSH1 0x0 DUP2 SLOAD DUP1 SWAP3 SWAP2 SWAP1 PUSH2 0xE1A SWAP1 PUSH2 0x19C3 JUMP JUMPDEST SWAP2 SWAP1 POP SSTORE SWAP1 POP PUSH1 0x5 PUSH1 0x40 MLOAD DUP1 PUSH1 0xA0 ADD PUSH1 0x40 MSTORE DUP1 DUP4 DUP2 MSTORE PUSH1 0x20 ADD DUP6 DUP2 MSTORE PUSH1 0x20 ADD DUP5 DUP2 MSTORE PUSH1 0x20 ADD CALLER PUSH20 0xFFFFFFFFFFFFFFFFFFFFFFFFFFFFFFFFFFFFFFFF AND DUP2 MSTORE PUSH1 0x20 ADD PUSH1 0x1 PUSH1 0x0 CALLER PUSH20 0xFFFFFFFFFFFFFFFFFFFFFFFFFFFFFFFFFFFFFFFF AND PUSH20 0xFFFFFFFFFFFFFFFFFFFFFFFFFFFFFFFFFFFFFFFF AND DUP2 MSTORE PUSH1 0x20 ADD SWAP1 DUP2 MSTORE PUSH1 0x20 ADD PUSH1 0x0 KECCAK256 DUP1 SLOAD PUSH2 0xEA5 SWAP1 PUSH2 0x1934 JUMP JUMPDEST DUP1 PUSH1 0x1F ADD PUSH1 0x20 DUP1 SWAP2 DIV MUL PUSH1 0x20 ADD PUSH1 0x40 MLOAD SWAP1 DUP2 ADD PUSH1 0x40 MSTORE DUP1 SWAP3 SWAP2 SWAP1 DUP2 DUP2 MSTORE PUSH1 0x20 ADD DUP3 DUP1 SLOAD PUSH2 0xED1 SWAP1 PUSH2 0x1934 JUMP JUMPDEST DUP1 ISZERO PUSH2 0xF1E JUMPI DUP1 PUSH1 0x1F LT PUSH2 0xEF3 JUMPI PUSH2 0x100 DUP1 DUP4 SLOAD DIV MUL DUP4 MSTORE SWAP2 PUSH1 0x20 ADD SWAP2 PUSH2 0xF1E JUMP JUMPDEST DUP3 ADD SWAP2 SWAP1 PUSH1 0x0 MSTORE PUSH1 0x20 PUSH1 0x0 KECCAK256 SWAP1 JUMPDEST DUP2 SLOAD DUP2 MSTORE SWAP1 PUSH1 0x1 ADD SWAP1 PUSH1 0x20 ADD DUP1 DUP4 GT PUSH2 0xF01 JUMPI DUP3 SWAP1 SUB PUSH1 0x1F AND DUP3 ADD SWAP2 JUMPDEST POP POP POP POP POP DUP2 MSTORE POP SWAP1 DUP1 PUSH1 0x1 DUP2 SLOAD ADD DUP1 DUP3 SSTORE DUP1 SWAP2 POP POP PUSH1 0x1 SWAP1 SUB SWAP1 PUSH1 0x0 MSTORE PUSH1 0x20 PUSH1 0x0 KECCAK256 SWAP1 PUSH1 0x5 MUL ADD PUSH1 0x0 SWAP1 SWAP2 SWAP1 SWAP2 SWAP1 SWAP2 POP PUSH1 0x0 DUP3 ADD MLOAD DUP2 PUSH1 0x0 ADD SSTORE PUSH1 0x20 DUP3 ADD MLOAD DUP2 PUSH1 0x1 ADD SSTORE PUSH1 0x40 DUP3 ADD MLOAD DUP2 PUSH1 0x2 ADD SSTORE PUSH1 0x60 DUP3 ADD MLOAD DUP2 PUSH1 0x3 ADD PUSH1 0x0 PUSH2 0x100 EXP DUP2 SLOAD DUP2 PUSH20 0xFFFFFFFFFFFFFFFFFFFFFFFFFFFFFFFFFFFFFFFF MUL NOT AND SWAP1 DUP4 PUSH20 0xFFFFFFFFFFFFFFFFFFFFFFFFFFFFFFFFFFFFFFFF AND MUL OR SWAP1 SSTORE POP PUSH1 0x80 DUP3 ADD MLOAD DUP2 PUSH1 0x4 ADD SWAP1 DUP2 PUSH2 0xFC9 SWAP2 SWAP1 PUSH2 0x1BB7 JUMP JUMPDEST POP POP POP CALLER PUSH1 0x4 PUSH1 0x0 DUP4 DUP2 MSTORE PUSH1 0x20 ADD SWAP1 DUP2 MSTORE PUSH1 0x20 ADD PUSH1 0x0 KECCAK256 PUSH1 0x0 PUSH2 0x100 EXP DUP2 SLOAD DUP2 PUSH20 0xFFFFFFFFFFFFFFFFFFFFFFFFFFFFFFFFFFFFFFFF MUL NOT AND SWAP1 DUP4 PUSH20 0xFFFFFFFFFFFFFFFFFFFFFFFFFFFFFFFFFFFFFFFF AND MUL OR SWAP1 SSTORE POP PUSH1 0x1 PUSH1 0x0 CALLER PUSH20 0xFFFFFFFFFFFFFFFFFFFFFFFFFFFFFFFFFFFFFFFF AND PUSH20 0xFFFFFFFFFFFFFFFFFFFFFFFFFFFFFFFFFFFFFFFF AND DUP2 MSTORE PUSH1 0x20 ADD SWAP1 DUP2 MSTORE PUSH1 0x20 ADD PUSH1 0x0 KECCAK256 PUSH1 0x3 PUSH1 0x0 DUP4 DUP2 MSTORE PUSH1 0x20 ADD SWAP1 DUP2 MSTORE PUSH1 0x20 ADD PUSH1 0x0 KECCAK256 SWAP1 DUP2 PUSH2 0x107C SWAP2 SWAP1 PUSH2 0x1CB4 JUMP JUMPDEST POP DUP2 PUSH1 0x2 PUSH1 0x0 CALLER PUSH20 0xFFFFFFFFFFFFFFFFFFFFFFFFFFFFFFFFFFFFFFFF AND PUSH20 0xFFFFFFFFFFFFFFFFFFFFFFFFFFFFFFFFFFFFFFFF AND DUP2 MSTORE PUSH1 0x20 ADD SWAP1 DUP2 MSTORE PUSH1 0x20 ADD PUSH1 0x0 KECCAK256 PUSH1 0x0 DUP3 DUP3 SLOAD PUSH2 0x10CC SWAP2 SWAP1 PUSH2 0x1D9C JUMP JUMPDEST SWAP3 POP POP DUP2 SWAP1 SSTORE POP PUSH1 0x0 JUMPDEST PUSH1 0x6 DUP1 SLOAD SWAP1 POP DUP2 LT ISZERO PUSH2 0x11AB JUMPI CALLER PUSH20 0xFFFFFFFFFFFFFFFFFFFFFFFFFFFFFFFFFFFFFFFF AND PUSH1 0x6 DUP3 DUP2 SLOAD DUP2 LT PUSH2 0x110E JUMPI PUSH2 0x110D PUSH2 0x1965 JUMP JUMPDEST JUMPDEST SWAP1 PUSH1 0x0 MSTORE PUSH1 0x20 PUSH1 0x0 KECCAK256 SWAP1 PUSH1 0x3 MUL ADD PUSH1 0x1 ADD PUSH1 0x0 SWAP1 SLOAD SWAP1 PUSH2 0x100 EXP SWAP1 DIV PUSH20 0xFFFFFFFFFFFFFFFFFFFFFFFFFFFFFFFFFFFFFFFF AND PUSH20 0xFFFFFFFFFFFFFFFFFFFFFFFFFFFFFFFFFFFFFFFF AND SUB PUSH2 0x1198 JUMPI DUP3 PUSH1 0x6 DUP3 DUP2 SLOAD DUP2 LT PUSH2 0x1170 JUMPI PUSH2 0x116F PUSH2 0x1965 JUMP JUMPDEST JUMPDEST SWAP1 PUSH1 0x0 MSTORE PUSH1 0x20 PUSH1 0x0 KECCAK256 SWAP1 PUSH1 0x3 MUL ADD PUSH1 0x2 ADD PUSH1 0x0 DUP3 DUP3 SLOAD PUSH2 0x1190 SWAP2 SWAP1 PUSH2 0x1D9C JUMP JUMPDEST SWAP3 POP POP DUP2 SWAP1 SSTORE POP JUMPDEST DUP1 DUP1 PUSH2 0x11A3 SWAP1 PUSH2 0x19C3 JUMP JUMPDEST SWAP2 POP POP PUSH2 0x10D6 JUMP JUMPDEST POP POP POP POP JUMP JUMPDEST PUSH1 0x0 PUSH1 0x40 MLOAD SWAP1 POP SWAP1 JUMP JUMPDEST PUSH1 0x0 DUP1 REVERT JUMPDEST PUSH1 0x0 DUP1 REVERT JUMPDEST PUSH1 0x0 DUP2 SWAP1 POP SWAP2 SWAP1 POP JUMP JUMPDEST PUSH2 0x11D8 DUP2 PUSH2 0x11C5 JUMP JUMPDEST DUP2 EQ PUSH2 0x11E3 JUMPI PUSH1 0x0 DUP1 REVERT JUMPDEST POP JUMP JUMPDEST PUSH1 0x0 DUP2 CALLDATALOAD SWAP1 POP PUSH2 0x11F5 DUP2 PUSH2 0x11CF JUMP JUMPDEST SWAP3 SWAP2 POP POP JUMP JUMPDEST PUSH1 0x0 PUSH1 0x20 DUP3 DUP5 SUB SLT ISZERO PUSH2 0x1211 JUMPI PUSH2 0x1210 PUSH2 0x11BB JUMP JUMPDEST JUMPDEST PUSH1 0x0 PUSH2 0x121F DUP5 DUP3 DUP6 ADD PUSH2 0x11E6 JUMP JUMPDEST SWAP2 POP POP SWAP3 SWAP2 POP POP JUMP JUMPDEST PUSH1 0x0 PUSH20 0xFFFFFFFFFFFFFFFFFFFFFFFFFFFFFFFFFFFFFFFF DUP3 AND SWAP1 POP SWAP2 SWAP1 POP JUMP JUMPDEST PUSH1 0x0 PUSH2 0x1253 DUP3 PUSH2 0x1228 JUMP JUMPDEST SWAP1 POP SWAP2 SWAP1 POP JUMP JUMPDEST PUSH2 0x1263 DUP2 PUSH2 0x1248 JUMP JUMPDEST DUP3 MSTORE POP POP JUMP JUMPDEST PUSH1 0x0 PUSH1 0x20 DUP3 ADD SWAP1 POP PUSH2 0x127E PUSH1 0x0 DUP4 ADD DUP5 PUSH2 0x125A JUMP JUMPDEST SWAP3 SWAP2 POP POP JUMP JUMPDEST PUSH1 0x0 DUP2 MLOAD SWAP1 POP SWAP2 SWAP1 POP JUMP JUMPDEST PUSH1 0x0 DUP3 DUP3 MSTORE PUSH1 0x20 DUP3 ADD SWAP1 POP SWAP3 SWAP2 POP POP JUMP JUMPDEST PUSH1 0x0 DUP2 SWAP1 POP PUSH1 0x20 DUP3 ADD SWAP1 POP SWAP2 SWAP1 POP JUMP JUMPDEST PUSH2 0x12B9 DUP2 PUSH2 0x11C5 JUMP JUMPDEST DUP3 MSTORE POP POP JUMP JUMPDEST PUSH2 0x12C8 DUP2 PUSH2 0x1248 JUMP JUMPDEST DUP3 MSTORE POP POP JUMP JUMPDEST PUSH1 0x0 DUP2 MLOAD SWAP1 POP SWAP2 SWAP1 POP JUMP JUMPDEST PUSH1 0x0 DUP3 DUP3 MSTORE PUSH1 0x20 DUP3 ADD SWAP1 POP SWAP3 SWAP2 POP POP JUMP JUMPDEST PUSH1 0x0 JUMPDEST DUP4 DUP2 LT ISZERO PUSH2 0x1308 JUMPI DUP1 DUP3 ADD MLOAD DUP2 DUP5 ADD MSTORE PUSH1 0x20 DUP2 ADD SWAP1 POP PUSH2 0x12ED JUMP JUMPDEST PUSH1 0x0 DUP5 DUP5 ADD MSTORE POP POP POP POP JUMP JUMPDEST PUSH1 0x0 PUSH1 0x1F NOT PUSH1 0x1F DUP4 ADD AND SWAP1 POP SWAP2 SWAP1 POP JUMP JUMPDEST PUSH1 0x0 PUSH2 0x1330 DUP3 PUSH2 0x12CE JUMP JUMPDEST PUSH2 0x133A DUP2 DUP6 PUSH2 0x12D9 JUMP JUMPDEST SWAP4 POP PUSH2 0x134A DUP2 DUP6 PUSH1 0x20 DUP7 ADD PUSH2 0x12EA JUMP JUMPDEST PUSH2 0x1353 DUP2 PUSH2 0x1314 JUMP JUMPDEST DUP5 ADD SWAP2 POP POP SWAP3 SWAP2 POP POP JUMP JUMPDEST PUSH1 0x0 PUSH1 0xA0 DUP4 ADD PUSH1 0x0 DUP4 ADD MLOAD PUSH2 0x1376 PUSH1 0x0 DUP7 ADD DUP3 PUSH2 0x12B0 JUMP JUMPDEST POP PUSH1 0x20 DUP4 ADD MLOAD PUSH2 0x1389 PUSH1 0x20 DUP7 ADD DUP3 PUSH2 0x12B0 JUMP JUMPDEST POP PUSH1 0x40 DUP4 ADD MLOAD PUSH2 0x139C PUSH1 0x40 DUP7 ADD DUP3 PUSH2 0x12B0 JUMP JUMPDEST POP PUSH1 0x60 DUP4 ADD MLOAD PUSH2 0x13AF PUSH1 0x60 DUP7 ADD DUP3 PUSH2 0x12BF JUMP JUMPDEST POP PUSH1 0x80 DUP4 ADD MLOAD DUP5 DUP3 SUB PUSH1 0x80 DUP7 ADD MSTORE PUSH2 0x13C7 DUP3 DUP3 PUSH2 0x1325 JUMP JUMPDEST SWAP2 POP POP DUP1 SWAP2 POP POP SWAP3 SWAP2 POP POP JUMP JUMPDEST PUSH1 0x0 PUSH2 0x13E0 DUP4 DUP4 PUSH2 0x135E JUMP JUMPDEST SWAP1 POP SWAP3 SWAP2 POP POP JUMP JUMPDEST PUSH1 0x0 PUSH1 0x20 DUP3 ADD SWAP1 POP SWAP2 SWAP1 POP JUMP JUMPDEST PUSH1 0x0 PUSH2 0x1400 DUP3 PUSH2 0x1284 JUMP JUMPDEST PUSH2 0x140A DUP2 DUP6 PUSH2 0x128F JUMP JUMPDEST SWAP4 POP DUP4 PUSH1 0x20 DUP3 MUL DUP6 ADD PUSH2 0x141C DUP6 PUSH2 0x12A0 JUMP JUMPDEST DUP1 PUSH1 0x0 JUMPDEST DUP6 DUP2 LT ISZERO PUSH2 0x1458 JUMPI DUP5 DUP5 SUB DUP10 MSTORE DUP2 MLOAD PUSH2 0x1439 DUP6 DUP3 PUSH2 0x13D4 JUMP JUMPDEST SWAP5 POP PUSH2 0x1444 DUP4 PUSH2 0x13E8 JUMP JUMPDEST SWAP3 POP PUSH1 0x20 DUP11 ADD SWAP10 POP POP PUSH1 0x1 DUP2 ADD SWAP1 POP PUSH2 0x1420 JUMP JUMPDEST POP DUP3 SWAP8 POP DUP8 SWAP6 POP POP POP POP POP POP SWAP3 SWAP2 POP POP JUMP JUMPDEST PUSH1 0x0 PUSH1 0x20 DUP3 ADD SWAP1 POP DUP2 DUP2 SUB PUSH1 0x0 DUP4 ADD MSTORE PUSH2 0x1484 DUP2 DUP5 PUSH2 0x13F5 JUMP JUMPDEST SWAP1 POP SWAP3 SWAP2 POP POP JUMP JUMPDEST PUSH1 0x0 DUP1 REVERT JUMPDEST PUSH1 0x0 DUP1 REVERT JUMPDEST PUSH32 0x4E487B7100000000000000000000000000000000000000000000000000000000 PUSH1 0x0 MSTORE PUSH1 0x41 PUSH1 0x4 MSTORE PUSH1 0x24 PUSH1 0x0 REVERT JUMPDEST PUSH2 0x14CE DUP3 PUSH2 0x1314 JUMP JUMPDEST DUP2 ADD DUP2 DUP2 LT PUSH8 0xFFFFFFFFFFFFFFFF DUP3 GT OR ISZERO PUSH2 0x14ED JUMPI PUSH2 0x14EC PUSH2 0x1496 JUMP JUMPDEST JUMPDEST DUP1 PUSH1 0x40 MSTORE POP POP POP JUMP JUMPDEST PUSH1 0x0 PUSH2 0x1500 PUSH2 0x11B1 JUMP JUMPDEST SWAP1 POP PUSH2 0x150C DUP3 DUP3 PUSH2 0x14C5 JUMP JUMPDEST SWAP2 SWAP1 POP JUMP JUMPDEST PUSH1 0x0 PUSH8 0xFFFFFFFFFFFFFFFF DUP3 GT ISZERO PUSH2 0x152C JUMPI PUSH2 0x152B PUSH2 0x1496 JUMP JUMPDEST JUMPDEST PUSH2 0x1535 DUP3 PUSH2 0x1314 JUMP JUMPDEST SWAP1 POP PUSH1 0x20 DUP2 ADD SWAP1 POP SWAP2 SWAP1 POP JUMP JUMPDEST DUP3 DUP2 DUP4 CALLDATACOPY PUSH1 0x0 DUP4 DUP4 ADD MSTORE POP POP POP JUMP JUMPDEST PUSH1 0x0 PUSH2 0x1564 PUSH2 0x155F DUP5 PUSH2 0x1511 JUMP JUMPDEST PUSH2 0x14F6 JUMP JUMPDEST SWAP1 POP DUP3 DUP2 MSTORE PUSH1 0x20 DUP2 ADD DUP5 DUP5 DUP5 ADD GT ISZERO PUSH2 0x1580 JUMPI PUSH2 0x157F PUSH2 0x1491 JUMP JUMPDEST JUMPDEST PUSH2 0x158B DUP5 DUP3 DUP6 PUSH2 0x1542 JUMP JUMPDEST POP SWAP4 SWAP3 POP POP POP JUMP JUMPDEST PUSH1 0x0 DUP3 PUSH1 0x1F DUP4 ADD SLT PUSH2 0x15A8 JUMPI PUSH2 0x15A7 PUSH2 0x148C JUMP JUMPDEST JUMPDEST DUP2 CALLDATALOAD PUSH2 0x15B8 DUP5 DUP3 PUSH1 0x20 DUP7 ADD PUSH2 0x1551 JUMP JUMPDEST SWAP2 POP POP SWAP3 SWAP2 POP POP JUMP JUMPDEST PUSH1 0x0 PUSH1 0x20 DUP3 DUP5 SUB SLT ISZERO PUSH2 0x15D7 JUMPI PUSH2 0x15D6 PUSH2 0x11BB JUMP JUMPDEST JUMPDEST PUSH1 0x0 DUP3 ADD CALLDATALOAD PUSH8 0xFFFFFFFFFFFFFFFF DUP2 GT ISZERO PUSH2 0x15F5 JUMPI PUSH2 0x15F4 PUSH2 0x11C0 JUMP JUMPDEST JUMPDEST PUSH2 0x1601 DUP5 DUP3 DUP6 ADD PUSH2 0x1593 JUMP JUMPDEST SWAP2 POP POP SWAP3 SWAP2 POP POP JUMP JUMPDEST PUSH2 0x1613 DUP2 PUSH2 0x1248 JUMP JUMPDEST DUP2 EQ PUSH2 0x161E JUMPI PUSH1 0x0 DUP1 REVERT JUMPDEST POP JUMP JUMPDEST PUSH1 0x0 DUP2 CALLDATALOAD SWAP1 POP PUSH2 0x1630 DUP2 PUSH2 0x160A JUMP JUMPDEST SWAP3 SWAP2 POP POP JUMP JUMPDEST PUSH1 0x0 PUSH1 0x20 DUP3 DUP5 SUB SLT ISZERO PUSH2 0x164C JUMPI PUSH2 0x164B PUSH2 0x11BB JUMP JUMPDEST JUMPDEST PUSH1 0x0 PUSH2 0x165A DUP5 DUP3 DUP6 ADD PUSH2 0x1621 JUMP JUMPDEST SWAP2 POP POP SWAP3 SWAP2 POP POP JUMP JUMPDEST PUSH2 0x166C DUP2 PUSH2 0x11C5 JUMP JUMPDEST DUP3 MSTORE POP POP JUMP JUMPDEST PUSH1 0x0 PUSH1 0x20 DUP3 ADD SWAP1 POP PUSH2 0x1687 PUSH1 0x0 DUP4 ADD DUP5 PUSH2 0x1663 JUMP JUMPDEST SWAP3 SWAP2 POP POP JUMP JUMPDEST PUSH1 0x0 DUP3 DUP3 MSTORE PUSH1 0x20 DUP3 ADD SWAP1 POP SWAP3 SWAP2 POP POP JUMP JUMPDEST PUSH1 0x0 PUSH2 0x16A9 DUP3 PUSH2 0x12CE JUMP JUMPDEST PUSH2 0x16B3 DUP2 DUP6 PUSH2 0x168D JUMP JUMPDEST SWAP4 POP PUSH2 0x16C3 DUP2 DUP6 PUSH1 0x20 DUP7 ADD PUSH2 0x12EA JUMP JUMPDEST PUSH2 0x16CC DUP2 PUSH2 0x1314 JUMP JUMPDEST DUP5 ADD SWAP2 POP POP SWAP3 SWAP2 POP POP JUMP JUMPDEST PUSH1 0x0 PUSH1 0x20 DUP3 ADD SWAP1 POP DUP2 DUP2 SUB PUSH1 0x0 DUP4 ADD MSTORE PUSH2 0x16F1 DUP2 DUP5 PUSH2 0x169E JUMP JUMPDEST SWAP1 POP SWAP3 SWAP2 POP POP JUMP JUMPDEST PUSH1 0x0 PUSH1 0x60 DUP3 ADD SWAP1 POP DUP2 DUP2 SUB PUSH1 0x0 DUP4 ADD MSTORE PUSH2 0x1713 DUP2 DUP7 PUSH2 0x169E JUMP JUMPDEST SWAP1 POP PUSH2 0x1722 PUSH1 0x20 DUP4 ADD DUP6 PUSH2 0x125A JUMP JUMPDEST PUSH2 0x172F PUSH1 0x40 DUP4 ADD DUP5 PUSH2 0x1663 JUMP JUMPDEST SWAP5 SWAP4 POP POP POP POP JUMP JUMPDEST PUSH1 0x0 DUP2 MLOAD SWAP1 POP SWAP2 SWAP1 POP JUMP JUMPDEST PUSH1 0x0 DUP3 DUP3 MSTORE PUSH1 0x20 DUP3 ADD SWAP1 POP SWAP3 SWAP2 POP POP JUMP JUMPDEST PUSH1 0x0 DUP2 SWAP1 POP PUSH1 0x20 DUP3 ADD SWAP1 POP SWAP2 SWAP1 POP JUMP JUMPDEST PUSH1 0x0 PUSH1 0x60 DUP4 ADD PUSH1 0x0 DUP4 ADD MLOAD DUP5 DUP3 SUB PUSH1 0x0 DUP7 ADD MSTORE PUSH2 0x1780 DUP3 DUP3 PUSH2 0x1325 JUMP JUMPDEST SWAP2 POP POP PUSH1 0x20 DUP4 ADD MLOAD PUSH2 0x1795 PUSH1 0x20 DUP7 ADD DUP3 PUSH2 0x12BF JUMP JUMPDEST POP PUSH1 0x40 DUP4 ADD MLOAD PUSH2 0x17A8 PUSH1 0x40 DUP7 ADD DUP3 PUSH2 0x12B0 JUMP JUMPDEST POP DUP1 SWAP2 POP POP SWAP3 SWAP2 POP POP JUMP JUMPDEST PUSH1 0x0 PUSH2 0x17BF DUP4 DUP4 PUSH2 0x1763 JUMP JUMPDEST SWAP1 POP SWAP3 SWAP2 POP POP JUMP JUMPDEST PUSH1 0x0 PUSH1 0x20 DUP3 ADD SWAP1 POP SWAP2 SWAP1 POP JUMP JUMPDEST PUSH1 0x0 PUSH2 0x17DF DUP3 PUSH2 0x1737 JUMP JUMPDEST PUSH2 0x17E9 DUP2 DUP6 PUSH2 0x1742 JUMP JUMPDEST SWAP4 POP DUP4 PUSH1 0x20 DUP3 MUL DUP6 ADD PUSH2 0x17FB DUP6 PUSH2 0x1753 JUMP JUMPDEST DUP1 PUSH1 0x0 JUMPDEST DUP6 DUP2 LT ISZERO PUSH2 0x1837 JUMPI DUP5 DUP5 SUB DUP10 MSTORE DUP2 MLOAD PUSH2 0x1818 DUP6 DUP3 PUSH2 0x17B3 JUMP JUMPDEST SWAP5 POP PUSH2 0x1823 DUP4 PUSH2 0x17C7 JUMP JUMPDEST SWAP3 POP PUSH1 0x20 DUP11 ADD SWAP10 POP POP PUSH1 0x1 DUP2 ADD SWAP1 POP PUSH2 0x17FF JUMP JUMPDEST POP DUP3 SWAP8 POP DUP8 SWAP6 POP POP POP POP POP POP SWAP3 SWAP2 POP POP JUMP JUMPDEST PUSH1 0x0 PUSH1 0x20 DUP3 ADD SWAP1 POP DUP2 DUP2 SUB PUSH1 0x0 DUP4 ADD MSTORE PUSH2 0x1863 DUP2 DUP5 PUSH2 0x17D4 JUMP JUMPDEST SWAP1 POP SWAP3 SWAP2 POP POP JUMP JUMPDEST PUSH1 0x0 PUSH1 0xA0 DUP3 ADD SWAP1 POP PUSH2 0x1880 PUSH1 0x0 DUP4 ADD DUP9 PUSH2 0x1663 JUMP JUMPDEST PUSH2 0x188D PUSH1 0x20 DUP4 ADD DUP8 PUSH2 0x1663 JUMP JUMPDEST PUSH2 0x189A PUSH1 0x40 DUP4 ADD DUP7 PUSH2 0x1663 JUMP JUMPDEST PUSH2 0x18A7 PUSH1 0x60 DUP4 ADD DUP6 PUSH2 0x125A JUMP JUMPDEST DUP2 DUP2 SUB PUSH1 0x80 DUP4 ADD MSTORE PUSH2 0x18B9 DUP2 DUP5 PUSH2 0x169E JUMP JUMPDEST SWAP1 POP SWAP7 SWAP6 POP POP POP POP POP POP JUMP JUMPDEST PUSH1 0x0 DUP1 PUSH1 0x40 DUP4 DUP6 SUB SLT ISZERO PUSH2 0x18DC JUMPI PUSH2 0x18DB PUSH2 0x11BB JUMP JUMPDEST JUMPDEST PUSH1 0x0 PUSH2 0x18EA DUP6 DUP3 DUP7 ADD PUSH2 0x11E6 JUMP JUMPDEST SWAP3 POP POP PUSH1 0x20 PUSH2 0x18FB DUP6 DUP3 DUP7 ADD PUSH2 0x11E6 JUMP JUMPDEST SWAP2 POP POP SWAP3 POP SWAP3 SWAP1 POP JUMP JUMPDEST PUSH32 0x4E487B7100000000000000000000000000000000000000000000000000000000 PUSH1 0x0 MSTORE PUSH1 0x22 PUSH1 0x4 MSTORE PUSH1 0x24 PUSH1 0x0 REVERT JUMPDEST PUSH1 0x0 PUSH1 0x2 DUP3 DIV SWAP1 POP PUSH1 0x1 DUP3 AND DUP1 PUSH2 0x194C JUMPI PUSH1 0x7F DUP3 AND SWAP2 POP JUMPDEST PUSH1 0x20 DUP3 LT DUP2 SUB PUSH2 0x195F JUMPI PUSH2 0x195E PUSH2 0x1905 JUMP JUMPDEST JUMPDEST POP SWAP2 SWAP1 POP JUMP JUMPDEST PUSH32 0x4E487B7100000000000000000000000000000000000000000000000000000000 PUSH1 0x0 MSTORE PUSH1 0x32 PUSH1 0x4 MSTORE PUSH1 0x24 PUSH1 0x0 REVERT JUMPDEST PUSH32 0x4E487B7100000000000000000000000000000000000000000000000000000000 PUSH1 0x0 MSTORE PUSH1 0x11 PUSH1 0x4 MSTORE PUSH1 0x24 PUSH1 0x0 REVERT JUMPDEST PUSH1 0x0 PUSH2 0x19CE DUP3 PUSH2 0x11C5 JUMP JUMPDEST SWAP2 POP PUSH32 0xFFFFFFFFFFFFFFFFFFFFFFFFFFFFFFFFFFFFFFFFFFFFFFFFFFFFFFFFFFFFFFFF DUP3 SUB PUSH2 0x1A00 JUMPI PUSH2 0x19FF PUSH2 0x1994 JUMP JUMPDEST JUMPDEST PUSH1 0x1 DUP3 ADD SWAP1 POP SWAP2 SWAP1 POP JUMP JUMPDEST PUSH1 0x0 DUP2 SWAP1 POP DUP2 PUSH1 0x0 MSTORE PUSH1 0x20 PUSH1 0x0 KECCAK256 SWAP1 POP SWAP2 SWAP1 POP JUMP JUMPDEST PUSH1 0x0 PUSH1 0x20 PUSH1 0x1F DUP4 ADD DIV SWAP1 POP SWAP2 SWAP1 POP JUMP JUMPDEST PUSH1 0x0 DUP3 DUP3 SHL SWAP1 POP SWAP3 SWAP2 POP POP JUMP JUMPDEST PUSH1 0x0 PUSH1 0x8 DUP4 MUL PUSH2 0x1A6D PUSH32 0xFFFFFFFFFFFFFFFFFFFFFFFFFFFFFFFFFFFFFFFFFFFFFFFFFFFFFFFFFFFFFFFF DUP3 PUSH2 0x1A30 JUMP JUMPDEST PUSH2 0x1A77 DUP7 DUP4 PUSH2 0x1A30 JUMP JUMPDEST SWAP6 POP DUP1 NOT DUP5 AND SWAP4 POP DUP1 DUP7 AND DUP5 OR SWAP3 POP POP POP SWAP4 SWAP3 POP POP POP JUMP JUMPDEST PUSH1 0x0 DUP2 SWAP1 POP SWAP2 SWAP1 POP JUMP JUMPDEST PUSH1 0x0 PUSH2 0x1AB4 PUSH2 0x1AAF PUSH2 0x1AAA DUP5 PUSH2 0x11C5 JUMP JUMPDEST PUSH2 0x1A8F JUMP JUMPDEST PUSH2 0x11C5 JUMP JUMPDEST SWAP1 POP SWAP2 SWAP1 POP JUMP JUMPDEST PUSH1 0x0 DUP2 SWAP1 POP SWAP2 SWAP1 POP JUMP JUMPDEST PUSH2 0x1ACE DUP4 PUSH2 0x1A99 JUMP JUMPDEST PUSH2 0x1AE2 PUSH2 0x1ADA DUP3 PUSH2 0x1ABB JUMP JUMPDEST DUP5 DUP5 SLOAD PUSH2 0x1A3D JUMP JUMPDEST DUP3 SSTORE POP POP POP POP JUMP JUMPDEST PUSH1 0x0 SWAP1 JUMP JUMPDEST PUSH2 0x1AF7 PUSH2 0x1AEA JUMP JUMPDEST PUSH2 0x1B02 DUP2 DUP5 DUP5 PUSH2 0x1AC5 JUMP JUMPDEST POP POP POP JUMP JUMPDEST JUMPDEST DUP2 DUP2 LT ISZERO PUSH2 0x1B26 JUMPI PUSH2 0x1B1B PUSH1 0x0 DUP3 PUSH2 0x1AEF JUMP JUMPDEST PUSH1 0x1 DUP2 ADD SWAP1 POP PUSH2 0x1B08 JUMP JUMPDEST POP POP JUMP JUMPDEST PUSH1 0x1F DUP3 GT ISZERO PUSH2 0x1B6B JUMPI PUSH2 0x1B3C DUP2 PUSH2 0x1A0B JUMP JUMPDEST PUSH2 0x1B45 DUP5 PUSH2 0x1A20 JUMP JUMPDEST DUP2 ADD PUSH1 0x20 DUP6 LT ISZERO PUSH2 0x1B54 JUMPI DUP2 SWAP1 POP JUMPDEST PUSH2 0x1B68 PUSH2 0x1B60 DUP6 PUSH2 0x1A20 JUMP JUMPDEST DUP4 ADD DUP3 PUSH2 0x1B07 JUMP JUMPDEST POP POP JUMPDEST POP POP POP JUMP JUMPDEST PUSH1 0x0 DUP3 DUP3 SHR SWAP1 POP SWAP3 SWAP2 POP POP JUMP JUMPDEST PUSH1 0x0 PUSH2 0x1B8E PUSH1 0x0 NOT DUP5 PUSH1 0x8 MUL PUSH2 0x1B70 JUMP JUMPDEST NOT DUP1 DUP4 AND SWAP2 POP POP SWAP3 SWAP2 POP POP JUMP JUMPDEST PUSH1 0x0 PUSH2 0x1BA7 DUP4 DUP4 PUSH2 0x1B7D JUMP JUMPDEST SWAP2 POP DUP3 PUSH1 0x2 MUL DUP3 OR SWAP1 POP SWAP3 SWAP2 POP POP JUMP JUMPDEST PUSH2 0x1BC0 DUP3 PUSH2 0x12CE JUMP JUMPDEST PUSH8 0xFFFFFFFFFFFFFFFF DUP2 GT ISZERO PUSH2 0x1BD9 JUMPI PUSH2 0x1BD8 PUSH2 0x1496 JUMP JUMPDEST JUMPDEST PUSH2 0x1BE3 DUP3 SLOAD PUSH2 0x1934 JUMP JUMPDEST PUSH2 0x1BEE DUP3 DUP3 DUP6 PUSH2 0x1B2A JUMP JUMPDEST PUSH1 0x0 PUSH1 0x20 SWAP1 POP PUSH1 0x1F DUP4 GT PUSH1 0x1 DUP2 EQ PUSH2 0x1C21 JUMPI PUSH1 0x0 DUP5 ISZERO PUSH2 0x1C0F JUMPI DUP3 DUP8 ADD MLOAD SWAP1 POP JUMPDEST PUSH2 0x1C19 DUP6 DUP3 PUSH2 0x1B9B JUMP JUMPDEST DUP7 SSTORE POP PUSH2 0x1C81 JUMP JUMPDEST PUSH1 0x1F NOT DUP5 AND PUSH2 0x1C2F DUP7 PUSH2 0x1A0B JUMP JUMPDEST PUSH1 0x0 JUMPDEST DUP3 DUP2 LT ISZERO PUSH2 0x1C57 JUMPI DUP5 DUP10 ADD MLOAD DUP3 SSTORE PUSH1 0x1 DUP3 ADD SWAP2 POP PUSH1 0x20 DUP6 ADD SWAP5 POP PUSH1 0x20 DUP2 ADD SWAP1 POP PUSH2 0x1C32 JUMP JUMPDEST DUP7 DUP4 LT ISZERO PUSH2 0x1C74 JUMPI DUP5 DUP10 ADD MLOAD PUSH2 0x1C70 PUSH1 0x1F DUP10 AND DUP3 PUSH2 0x1B7D JUMP JUMPDEST DUP4 SSTORE POP JUMPDEST PUSH1 0x1 PUSH1 0x2 DUP9 MUL ADD DUP9 SSTORE POP POP POP JUMPDEST POP POP POP POP POP POP JUMP JUMPDEST PUSH1 0x0 DUP2 SLOAD SWAP1 POP PUSH2 0x1C98 DUP2 PUSH2 0x1934 JUMP JUMPDEST SWAP1 POP SWAP2 SWAP1 POP JUMP JUMPDEST PUSH1 0x0 DUP2 SWAP1 POP DUP2 PUSH1 0x0 MSTORE PUSH1 0x20 PUSH1 0x0 KECCAK256 SWAP1 POP SWAP2 SWAP1 POP JUMP JUMPDEST DUP2 DUP2 SUB PUSH2 0x1CC2 JUMPI POP POP PUSH2 0x1D9A JUMP JUMPDEST PUSH2 0x1CCB DUP3 PUSH2 0x1C89 JUMP JUMPDEST PUSH8 0xFFFFFFFFFFFFFFFF DUP2 GT ISZERO PUSH2 0x1CE4 JUMPI PUSH2 0x1CE3 PUSH2 0x1496 JUMP JUMPDEST JUMPDEST PUSH2 0x1CEE DUP3 SLOAD PUSH2 0x1934 JUMP JUMPDEST PUSH2 0x1CF9 DUP3 DUP3 DUP6 PUSH2 0x1B2A JUMP JUMPDEST PUSH1 0x0 PUSH1 0x1F DUP4 GT PUSH1 0x1 DUP2 EQ PUSH2 0x1D28 JUMPI PUSH1 0x0 DUP5 ISZERO PUSH2 0x1D16 JUMPI DUP3 DUP8 ADD SLOAD SWAP1 POP JUMPDEST PUSH2 0x1D20 DUP6 DUP3 PUSH2 0x1B9B JUMP JUMPDEST DUP7 SSTORE POP PUSH2 0x1D93 JUMP JUMPDEST PUSH1 0x1F NOT DUP5 AND PUSH2 0x1D36 DUP8 PUSH2 0x1C9F JUMP JUMPDEST SWAP7 POP PUSH2 0x1D41 DUP7 PUSH2 0x1A0B JUMP JUMPDEST PUSH1 0x0 JUMPDEST DUP3 DUP2 LT ISZERO PUSH2 0x1D69 JUMPI DUP5 DUP10 ADD SLOAD DUP3 SSTORE PUSH1 0x1 DUP3 ADD SWAP2 POP PUSH1 0x1 DUP6 ADD SWAP5 POP PUSH1 0x20 DUP2 ADD SWAP1 POP PUSH2 0x1D44 JUMP JUMPDEST DUP7 DUP4 LT ISZERO PUSH2 0x1D86 JUMPI DUP5 DUP10 ADD SLOAD PUSH2 0x1D82 PUSH1 0x1F DUP10 AND DUP3 PUSH2 0x1B7D JUMP JUMPDEST DUP4 SSTORE POP JUMPDEST PUSH1 0x1 PUSH1 0x2 DUP9 MUL ADD DUP9 SSTORE POP POP POP JUMPDEST POP POP POP POP POP POP JUMPDEST JUMP JUMPDEST PUSH1 0x0 PUSH2 0x1DA7 DUP3 PUSH2 0x11C5 JUMP JUMPDEST SWAP2 POP PUSH2 0x1DB2 DUP4 PUSH2 0x11C5 JUMP JUMPDEST SWAP3 POP DUP3 DUP3 ADD SWAP1 POP DUP1 DUP3 GT ISZERO PUSH2 0x1DCA JUMPI PUSH2 0x1DC9 PUSH2 0x1994 JUMP JUMPDEST JUMPDEST SWAP3 SWAP2 POP POP JUMP INVALID LOG2 PUSH5 0x6970667358 0x22 SLT KECCAK256 DELEGATECALL 0xE5 PUSH30 0x7024381DFBA45F323F8C4253BFA25FC2C7FFF33F35124F5960F524011964 PUSH20 0x6F6C634300081300330000000000000000000000 "},"methodIdentifiers":{"addOrder(uint256,uint256)":"f28db6c4","addWaiter()":"3446a705","addressToWaiterName(address)":"9c6f8559","getOrders()":"2e2dc43e","getWaiters()":"a7c9de69","orderNumber()":"b04dd81b","orderToWaiterAddress(uint256)":"0698cb45","orderToWaiterName(uint256)":"a64468aa","orders(uint256)":"a85c38ef","updateWaiterName(string)":"40476f8f","waiterToTip(address)":"40fae7ae","waiters(uint256)":"a6eaa06d","withdrawTips()":"3aaa74b2"}}}}}